:020000040800F2
:100000000808002051020008252A0008512800088D
:10001000212A00088D0400088D2D00080000000032
:10002000000000000000000000000000992A000805
:10003000A104000800000000952A0008F12A000829
:100040006B0200086B0200086B0200086B020008DC
:100050006B0200086B0200086B0200086B020008CC
:10006000A50400086B0200086B0200086B02000880
:100070006B0200086B0200086B0200086B020008AC
:100080006B0200086B0200086B0200086B0200089C
:10009000910400086B0200086B0200086B02000864
:1000A0006B0200086B0200086B0200086B0200087C
:1000B0006B0200086B0200086B0200086B0200086C
:1000C0006B0200086B0200086B0200086B0200085C
:1000D0006B0200086B0200086B0200086B0200084C
:1000E0006B0200086B0200086B0200086B0200083C
:1000F0006B0200086B0200086B0200086B0200082C
:100100006B0200086B0200086B0200086B0200081B
:100110006B0200086B020008D92B00086B02000874
:100120006B0200086B0200086B0200086B020008FB
:100130006B0200086B0200086B0200086B020008EB
:100140006B0200086B0200086B0200086B020008DB
:100150006B0200086B0200086B0200086B020008CB
:100160006B0200086B0200086B0200086B020008BB
:100170006B0200086B0200086B0200080000000020
:100180006B0200086B0200086B0200086B0200089B
:100190006B0200086B0200086B0200086B0200088B
:1001A00000000000000000006B02000800F002F8F0
:1001B00000F03EF80AA090E8000C82448344AAF1C3
:1001C0000107DA4501D100F033F8AFF2090EBAE8C1
:1001D0000F0013F0010F18BFFB1A43F0010318477B
:1001E000983C0000B83C0000103A24BF78C878C1A1
:1001F000FAD8520724BF30C830C144BF04680C602D
:10020000704700000023002400250026103A28BF74
:1002100078C1FBD8520728BF30C148BF0B60704778
:100220001FB503F0FEFD00F0D5F81FBD10B510BDE1
:1002300000F0F6F81146FFF7F3FF03F0DFF900F0E6
:1002400014F903B4FFF7F2FF03BC00F017F9000044
:100250000948804709480047FEE7FEE7FEE7FEE75A
:10026000FEE7FEE7FEE7FEE7FEE7FEE70448054996
:10027000054A064B70470000C52B0008AD01000879
:1002800008020020080800200804002008040020BC
:1002900053EA020C00F069802DE9F04B4FF00006A4
:1002A000002B1FBFB3FA83F503FA05F424FA05F611
:1002B0005E4012BF1643B2FA82F502FA05F4C5F1A8
:1002C00020051EBF22FA05FC44EA0C04203556EA3C
:1002D000044C4FEA144418BF641C4FF000084FF060
:1002E0000009904271EB030C39D3002919BFB1FA10
:1002F00081F701FA07F6B0FA80F700FA07F6C7F1BE
:1003000020071EBF20FA07FC46EA0C062037B6FB82
:10031000F4FCA7EB0507103F07F01F0BCBF12006FD
:100320002CFA06F60CFA0BFB44BFB3460026202F2E
:10033000A4BF5E464FF0000B5BEA060C08BF4FF00F
:10034000010B19EB0B0948EB0608ABFB027C06FB23
:1003500002CC0BFB03CCC01B71EB0C01C1E70B46BD
:10036000024641464846BDE8F08B13B5084318BF26
:100370004FF0FF300146AFF30080BDE81C407047EE
:100380004FF0000200B5134694469646203922BF2E
:10039000A0E80C50A0E80C50B1F12001BFF4F7AF79
:1003A000090728BFA0E80C5048BF0CC05DF804EB5B
:1003B000890028BF40F8042B08BF704748BF20F8C9
:1003C000022B11F0804F18BF00F8012B70477047C7
:1003D0007047704770B5064C7C44064D7D4404E080
:1003E0002046016808448047241DAC42F8D170BD06
:1003F000BC3A0000BC3A000010B500F009F80068F3
:1004000010BD10B5044600F003F8046010BD0000F4
:1004100000487047500000200048704750000020FE
:100420007546FFF7F9FFAE4605006946534620F0D2
:100430000700854618B020B5FFF718FFBDE820403B
:100440004FF000064FF000074FF000084FF0000B90
:10045000AC46ACE8C009ACE8C009ACE8C009ACE8FF
:10046000C00921F007018D46704710B50446AFF36F
:1004700000802046BDE81040FFF7E3BE0149182088
:10048000ABBEFEE72600020070470000FFE7FEE774
:1004900080B540F28C10C2F2000000F0C1FA80BDBD
:1004A0007047000080B5042000F0BEFE80BD000053
:1004B00072B6FFE7FEE7000084B002900191029857
:1004C00090F820008DF803009DF80300012805D066
:1004D000FFE79DF8030002280AD1FFE7019A02987E
:1004E000016848691043486100208DF80F0008E05A
:1004F0000299486A40F48020486201208DF80F007C
:10050000FFE79DF80F0004B07047000088B0069028
:10051000059104920393069890F820008DF8070047
:1005200006980068806800900598806808B9FFE721
:1005300000E0FFE79DF80700012806D0FFE79DF8DF
:100540000700022840F08080FFE79DF80300400785
:1005500000280CD4FFE79DF803000007002806D40C
:10056000FFE79DF80300C006002864D5FFE7009868
:10057000C0F301600290029901208840039908604D
:100580000598806868B9FFE705980168C06840EA87
:10059000415006990968029A01EB0211C1F88001E5
:1005A0000EE005994A688868C96840EAC2000843B5
:1005B00006990968029A01EB0211C1F88001FFE770
:1005C0000598006906990968029A01EB0211C1F8C1
:1005D00084010598007D01280CD1FFE7069800688A
:1005E000029900EB0111D1F8840140F48070C1F848
:1005F0008401FFE70498406806990968029A01EBB4
:100600000211C1F88C010498006806990968029AE1
:1006100001EB0211C1F8880106980068029900EB0D
:100620000111D1F8800140F00100C1F880010020E3
:100630008DF81F0011E00699486A40F400104862E6
:1006400001208DF81F0008E00699486A40F48020D8
:10065000486201208DF81F00FFE79DF81F0008B0D9
:100660007047000086B004900391049890F8200031
:100670008DF803009DF80300012806D0FFE79DF8E0
:100680000300022840F0B080FFE746F20040C4F2C9
:10069000000001900199D1F8000240F00100C1F87A
:1006A00000020199D1F8000220F47C50C1F8000248
:1006B0000398426A0199D1F8000240EA0220C1F889
:1006C00000020398406900F01F0101208840029059
:1006D000029A0199D1F81C029043C1F81C020398B8
:1006E000C069F0B9FFE7029A0199D1F80C02904372
:1006F000C1F80C02039A9088D168526940EA01401F
:10070000019901EBC201C1F84002039A1088916877
:10071000526940EA0140019901EBC201C1F844026B
:10072000FFE70398C06901281ED1FFE7029A0199EB
:10073000D1F80C021043C1F80C02039A908811689A
:10074000526940EA0140019901EBC201C1F840023F
:10075000039A90899168526940EA0140019901EB3E
:10076000C201C1F84402FFE70398806940B9FFE77E
:10077000029A0199D1F804029043C1F8040207E0FB
:10078000029A0199D1F804021043C1F80402FFE76C
:100790000398006940B9FFE7029A0199D1F8140261
:1007A0009043C1F8140207E0029A0199D1F81402AB
:1007B0001043C1F81402FFE70398006A012808D12A
:1007C000FFE7029A0199D1F81C021043C1F81C02FC
:1007D000FFE70199D1F8000220F00100C1F8000202
:1007E00000208DF8170008E00499486A40F4802042
:1007F000486201208DF81700FFE79DF8170006B04A
:100800007047000081B0009001B0704786B004903E
:10081000039102920193049890F820008DF8030050
:100820009DF80300012806D0FFE79DF80300022889
:1008300040F0E880FFE7039880B9FFE7049800687C
:10084000C068800748B9FFE70499486A40F400107F
:10085000486201208DF81700DDE00FE00498006881
:100860000069800748B9FFE70499486A40F400101E
:10087000486201208DF81700CDE0FFE7049800687A
:10088000039900EB0110D0F8B00100F004000299C8
:1008900088600298806858B9FFE704980068039957
:1008A00000EB0110D0F8B001400D029908600AE099
:1008B00004980068039900EB0110D0F8B001C0085B
:1008C00002994860FFE704980068039900EB011063
:1008D000D0F8B00100F002000299C86004980068E6
:1008E000039900EB0110D0F8B40100F00F000828C4
:1008F00004D3FFE70299082008610BE00498006820
:10090000039900EB0110D0F8B40100F00F00029938
:100910000861FFE704980068039900EB0110D0F824
:10092000B40180B2000A02998861049800680399B2
:1009300000EB0110D0F8B401000C02994861049852
:100940000068039900EB0110D0F8B8010199087014
:1009500004980068039900EB0110D0F8B801000A70
:100960000199487004980068039900EB0110D0F8D1
:10097000B801000C0199887004980068039900EB95
:100980000110D0F8B801000E0199C87004980068F1
:10099000039900EB0110D0F8BC010199087104988B
:1009A0000068039900EB0110D0F8BC01000A01991E
:1009B000487104980068039900EB0110D0F8BC015D
:1009C000000C0199887104980068039900EB0110EC
:1009D000D0F8BC01000E0199C871039838B9FFE73F
:1009E00004980168C86840F02000C86006E00498D8
:1009F0000168086940F020000861FFE700208DF8D9
:100A0000170008E00499486A40F4802048620120F9
:100A10008DF81700FFE79DF8170006B0704700003B
:100A200080B58AB009900020089009980068406954
:100A300007900998006840680690099800688068E7
:100A4000059009980068C0680490099800680069DA
:100A5000039009980068806902909DF81C00C00707
:100A6000002800F09480FFE79DF81400C00758B3F9
:100A7000FFE709980168012088609DF8140080074D
:100A8000002804D5FFE7099800F08CFB1BE09DF8D7
:100A900014004007002805D5FFE7089840F40060DF
:100AA00008900FE09DF814000007002805D5FFE727
:100AB000089840F48050089003E0099800F06EFB1D
:100AC000FFE7FFE7FFE7FFE79DF81500C00760B30A
:100AD000FFE7099801684FF4807088609DF8150061
:100AE0008007002804D5FFE7099800F063FB1BE0AE
:100AF0009DF815004007002805D5FFE7089840F449
:100B0000005008900FE09DF815000007002805D55B
:100B1000FFE7089840F48040089003E0099800F04F
:100B200045FBFFE7FFE7FFE7FFE79DF81600C0077B
:100B300060B3FFE7099801684FF4803088609DF842
:100B400016008007002804D5FFE7099800F03AFB5B
:100B50001BE09DF816004007002805D5FFE7089820
:100B600040F4004008900FE09DF8160000070028B0
:100B700005D5FFE7089840F48030089003E0099815
:100B800000F01CFBFFE7FFE7FFE7FFE7FFE79DF84B
:100B90001C000007002810D5FFE79DF81000C006D4
:100BA000002809D5FFE7089840F4007008900998DC
:100BB00001681020C860FFE7FFE79DF81C004007B0
:100BC00000280FD5FFE79DF810000007002808D582
:100BD000FFE7099801680820C860099800F05CFAEE
:100BE000FFE7FFE79DF81C00800700280BD5FFE713
:100BF00009980068C068800720B1FFE7099800F0F5
:100C00004FFAFFE7FFE79DF81C004006002810D5CB
:100C1000FFE79DF80C00C006002809D5FFE70898FB
:100C200040F4806008900998016810200861FFE78F
:100C3000FFE79DF81C00800600280FD5FFE79DF810
:100C40000C000007002808D5FFE709980168082074
:100C50000861099800F050FAFFE7FFE79DF81C00D3
:100C6000C00600280BD5FFE70998006800698007D7
:100C700020B1FFE7099800F043FAFFE7FFE79DF88E
:100C80001E00800700280FD5FFE79DF81800C0065A
:100C9000002808D5FFE709980168102048600998E6
:100CA00000F032FAFFE7FFE79DF81E00C00778B1B9
:100CB000FFE79DF818000007002808D5FFE709980E
:100CC000016808204860099800F080FAFFE7FFE714
:100CD0009DF81D000006002840F18D80FFE79DF87B
:100CE00018004007002840F18180FFE79DF81D00B3
:100CF000C00750B1FFE79DF80800C00728B1FFE723
:100D0000089840F001000890FFE79DF81D0080075B
:100D100000280BD5FFE79DF808008007002805D5BF
:100D2000FFE7089840F002000890FFE79DF81D00DB
:100D3000400700280BD5FFE79DF808004007002872
:100D400005D5FFE7089840F004000890FFE79DF8FC
:100D50001D000007002848D5FFE79DF8080010F0A7
:100D6000700F42D0FFE7029800F070000146019139
:100D7000102814D0FFE70198202815D0FFE701982C
:100D8000302816D0FFE70198402817D0FFE70198D8
:100D9000502818D0FFE70198602819D01DE0089866
:100DA00040F00800089019E0089840F01000089002
:100DB00014E0089840F0200008900FE0089840F0F8
:100DC000400008900AE0089840F08000089005E094
:100DD000089840F48070089000E0FFE709980168E7
:100DE000886920F070008861FFE7FFE709980168D3
:100DF00004204860FFE7089848B1FFE7089A09997E
:100E0000486A104348620998FFF7FCFCFFE70AB004
:100E100080BD000080B584B00290029820B9FFE741
:100E200001208DF80F00E0E0029890F8200020B932
:100E3000FFE7029800F0DEF8FFE702980168086813
:100E400040F00100086000F01BFC0190FFE70298F1
:100E500000684068C007A8B9FFE700F011FC0199DD
:100E6000401A0B280DD3FFE70299486A40F400307E
:100E700048620299052081F8200001208DF80F00BA
:100E8000B3E0E4E702980168086820F00200086017
:100E900000F0F6FB0190FFE70298006840688007C9
:100EA000002815D5FFE700F0EBFB0199401A0B284D
:100EB0000DD3FFE70299486A40F400304862029976
:100EC000052081F8200001208DF80F008DE0E3E778
:100ED0000298007E012807D1FFE7029801680868A0
:100EE00040F08000086006E002980168086820F081
:100EF00080000860FFE70298407E012807D1FFE7E5
:100F000002980168086840F04000086006E0029816
:100F10000168086820F040000860FFE70298807EC2
:100F2000012807D1FFE702980168086840F0200017
:100F3000086006E002980168086820F02000086058
:100F4000FFE70298C07E012807D1FFE702980168F9
:100F5000086820F01000086006E002980168086840
:100F600040F010000860FFE70298007F012807D1D9
:100F7000FFE702980168086840F00800086006E092
:100F800002980168086820F008000860FFE70298EE
:100F9000407F012807D1FFE702980168086840F008
:100FA0000400086006E002980168086820F0040068
:100FB0000860FFE7029B19685A689868D3F80CC06C
:100FC00040EA0C00D3F810C040EA0C005B691843FB
:100FD000013A1043C861029900204862029A012137
:100FE00082F820108DF80F00FFE79DF80F0004B085
:100FF00080BD000080B58AB009900020089007905D
:101000000690059004900998006846F20041C4F2E9
:10101000000188423DD1FFE7FFE70020039043F63F
:101020004000C4F20200016841F0007101600068F4
:1010300000F0007003900398FFE7FFE700200290A4
:1010400043F63000C4F20200016841F0080101607B
:10105000006800F0080002900298FFE70320049067
:101060000221059100210091069107900920089026
:1010700040F60040C4F2020004A900F0F1F8009A22
:1010800014200190114600F093FB019800F086FBBC
:10109000FFE70AB080BD000081B0009001B070474A
:1010A00080B588B00790079840F28C11C2F2000119
:1010B00088421ED1FFE7079840F28413C2F2000372
:1010C00000216A46FFF7A2FB90B9FFE7009840F2C3
:1010D000012188420BD1FFE740F2B000C2F20000CC
:1010E00040F28411C2F2000101F0DEFEFFE7FFE7EB
:1010F000FFE708B080BD000081B0009001B07047EC
:1011000081B0009001B0704781B0009001B070478D
:1011100080B584B00290029890F8200001282FD169
:10112000FFE70299022081F8200002980168086810
:1011300020F00100086000F0A3FA0190FFE7029898
:1011400000684068C007A8B1FFE700F099FA01996C
:10115000401A0B280DD3FFE70299486A40F400308B
:1011600048620299052081F8200001208DF80F00C7
:101170000FE0E4E70299002048628DF80F0008E0D4
:101180000299486A40F40020486201208DF80F005F
:10119000FFE79DF80F0004B080BD000081B0009013
:1011A00001B0704781B0009001B0704781B00090ED
:1011B00001B0704781B0009001B0704781B00090DD
:1011C00001B0704781B0009001B0704781B00090CD
:1011D00001B0704781B0ADF80200BDF802000428EC
:1011E0001FD1FFE740F2FC10C2F200000078012896
:1011F00007D1FFE740F2FC11C2F2000100200870A5
:101200000EE040F2FC10C2F20000007838B9FFE7AF
:1012100040F2FC11C2F2000101200870FFE7FFE775
:10122000FFE701B07047000080B582B0ADF806005E
:1012300043F61440C4F201000068BDF806100842ED
:101240000CD0FFE7BDF8060043F61441C4F20101DB
:101250000860BDF80600FFF7BDFFFFE702B080BDE4
:1012600090B00F900E9100200C900B900A900D9072
:10127000FFE70D980F2800F2E881FFE70D990120A4
:1012800088400C900E9800680C9908400B900B98C1
:101290000C99884240F0D481FFE70E98406800F036
:1012A0000300012807D0FFE70E98406800F0030014
:1012B00002282FD1FFE70F9880680A900D9841000F
:1012C000032000FA01F10A9888430A900E98C0683A
:1012D0000D99490000FA01F10A9808430A900A980A
:1012E0000F9988600F9840680A900D99012000FAC4
:1012F00001F10A9888430A900E984068C0F30010E4
:101300000D9900FA01F10A9808430A900A980F997A
:101310004860FFE70E98406800F00300032818D0EB
:10132000FFE70F98C0680A900D984100032000FA6B
:1013300001F10A9888430A900E9880680D99490037
:1013400000FA01F10A9808430A900A980F99C860B8
:10135000FFE70E98406800F00300022826D1FFE75F
:101360000F980D996FF0030202EA51010844006AD8
:101370000A900D9800F0070081000F2000FA01F19B
:101380000A9888430A900E9800690D9901F00701A8
:10139000890000FA01F10A9808430A900A980F9907
:1013A0000D9B02EA530211440862FFE70F980068A0
:1013B0000A900D984100032000FA01F10A98884331
:1013C0000A900E98406800F003000D99490000FA59
:1013D00001F10A9808430A900A980F9908600E983C
:1013E00080798007002800F02A81FFE7FFE70020CE
:1013F000099043F64400C4F20200016841F48041C0
:101400000160006800F4804009900998FFE70D989A
:1014100020F0030043F60801C4F2010140580A908D
:101420000D9800F0030081000F2000FA01F10A98E6
:1014300088430A900F980021C4F20201884203D128
:10144000FFE7002008907AE00F9840F20041C4F2D4
:101450000201884203D1FFE7012007906CE00F985A
:1014600040F60001C4F20201884203D1FFE70220E6
:1014700006905EE00F9840F60041C4F202018842F7
:1014800003D1FFE70320059050E00F9841F20001DF
:10149000C4F20201884203D1FFE70420049042E035
:1014A0000F9841F20041C4F20201884203D1FFE7E4
:1014B0000520039034E00F9841F60001C4F20201C8
:1014C000884203D1FFE70620029026E00F9841F6FC
:1014D0000041C4F20201884203D1FFE707200190D6
:1014E00018E00F9842F20001C4F20201884203D1D1
:1014F000FFE7082000900AE00F9942F20042C4F290
:1015000002020A20914208BF09200090FFE70098DC
:101510000190FFE701980290FFE702980390FFE730
:1015200003980490FFE704980590FFE7059806905C
:10153000FFE706980790FFE707980890FFE70898ED
:10154000C0B20D9901F00301890000FA01F10A9877
:1015500008430A900A980D9921F0030143F6080206
:10156000C4F20102885043F60840C4F2010000684A
:101570000A900B990A9888430A900E988079C006C1
:10158000002805D5FFE70B990A9808430A90FFE762
:101590000A9843F60841C4F20101086043F60C4082
:1015A000C4F2010000680A900B990A9888430A90D7
:1015B0000E9880798006002805D5FFE70B990A98D8
:1015C00008430A90FFE70A9843F60C41C4F2010170
:1015D000086043F60440C4F2010000680A900B99C9
:1015E0000A9888430A900E9880798007002805D5CC
:1015F000FFE70B990A9808430A90FFE70A9843F619
:101600000441C4F20101086043F60040C4F2010045
:1016100000680A900B990A9888430A900E9880797E
:10162000C00728B1FFE70B990A9808430A90FFE723
:101630000A9843F60041C4F201010860FFE7FFE7A2
:10164000FFE70D9801300D9013E610B070470000D1
:1016500082B00190ADF802108DF801209DF80100D4
:1016600028B1FFE7BDF802000199886105E0BDF8E7
:101670000200000401998861FFE702B07047000092
:1016800040F20020C2F200000068704740F24400BF
:10169000C2F20000027840F20021C2F200010868A4
:1016A000104408607047000080B543F60041C4F262
:1016B0000201086840F400700860086840F4806027
:1016C0000860086840F480700860032000F08AF821
:1016D0000F2000F005F800F03BF8002080BD00006E
:1016E00080B582B0009040F20000C2F200000068B5
:1016F00040F24401C2F200010A784FF47A71B1FB62
:10170000F2F1B0FBF1F000F0DBFD20B1FFE70120CA
:101710008DF8070018E000980F280DD8FFE7009912
:101720004FF0FF30002200F043F8009840F24801EB
:10173000C2F20001086003E001208DF8070003E019
:1017400000208DF80700FFE79DF8070002B080BD7C
:1017500082B0FFE70020019043F64400C4F202008B
:10176000016841F480410160006800F4804001900C
:101770000198FFE7FFE70020009043F64000C4F225
:101780000200016841F080510160006800F0805063
:1017900000900098FFE702B07047000080B582B06B
:1017A0008DF807009DF9070001F0BAFE02B080BD78
:1017B00080B586B08DF81700049103920020029046
:1017C00001F0C6FE02909DF917000190029804995D
:1017D000039A01F029F90146019801F0C1FE06B013
:1017E00080BD000080B582B00190019801F0DAFE62
:1017F00002B080BD80B584B000200290FFE70020D9
:10180000019043F64000C4F20200016841F08051AB
:101810000160006800F0805001900198FFE74021CE
:10182000C4F20E2101200860FFF72AFF0290FFE7B3
:1018300047F20400C4F20000006800F48030B0F504
:10184000803F0DD0FFE7FFF71BFF0299401AB0F56C
:101850007A7F04D9FFE703208DF80F0025E0E7E742
:101860004421C4F20E2101200860FFF709FF029015
:10187000FFE747F20400C4F20000006800F4003003
:10188000B0F5003F0DD0FFE7FFF7FAFE0299401ACE
:10189000B0F57A7F04D9FFE703208DF80F0004E04C
:1018A000E7E700208DF80F00FFE79DF80F0004B078
:1018B00080BD000080B584B002900191029820B9EB
:1018C000FFE701208DF80F0021E1019843F6004168
:1018D000C4F20201096801F00F01884212D9FFE742
:1018E000019943F60040C4F202000170006800F064
:1018F0000F000199884204D0FFE701208DF80F0006
:1019000005E1FFE702980078800700282AD5FFE765
:10191000029800784007002809D5FFE743F6080140
:10192000C4F20201086840F4E0500860FFE7029842
:1019300000780007002809D5FFE743F60801C4F244
:101940000201086840F460400860FFE743F60801C0
:10195000C4F20201086820F0F000029A9268104375
:101960000860FFE702980078C00700286ED0FFE704
:1019700002984068012811D1FFE743F60000C4F245
:101980000200006800F400310020B0EB514F04D198
:10199000FFE701208DF80F00B9E02CE002984068C5
:1019A000022805D0FFE702984068032811D1FFE71D
:1019B00043F60000C4F20200006800F0007100204D
:1019C000B0EB516F04D1FFE701208DF80F009EE0CE
:1019D00010E043F60000C4F20200006800F00201CB
:1019E0000020B0EB510F04D1FFE701208DF80F006C
:1019F0008DE0FFE7FFE743F60801C4F20201086843
:101A000020F00300029A526810430860FFF738FE86
:101A10000090FFE743F60800C4F20200006800F0FF
:101A20000C0002994968B0EB810F0ED0FFE7FFF779
:101A300027FE0099401A41F28931884204D3FFE71A
:101A400003208DF80F0062E0E4E7FFE7019843F61A
:101A50000041C4F20201096801F00F01884212D26C
:101A6000FFE7019943F60040C4F2020001700068EC
:101A700000F00F000199884204D0FFE701208DF8A3
:101A80000F0044E0FFE702980078400700280CD5DB
:101A9000FFE743F60801C4F20201086820F4E050B1
:101AA000029AD26810430860FFE7029800780007A6
:101AB00000280DD5FFE743F60801C4F202010868CB
:101AC00020F46040029A126940EAC2000860FFE711
:101AD00000F022F843F60801C4F202010968C9B215
:101AE0000A0943F66861C0F60001895CC84040F20B
:101AF0000001C2F20001086040F24800C2F200009A
:101B00000068FFF7EDFD00208DF80F00FFE79DF85E
:101B10000F0004B080BD000080B586B000200590A5
:101B200004900390029043F60800C4F2020000689B
:101B300000F00C000146019140B1FFE70198042834
:101B40000AD0FFE7019808280CD04FE042F200408D
:101B5000C0F2F40002904FE041F60030C0F2B7004E
:101B6000029049E043F60400C4F20200016801F06B
:101B70003F01059100684002002813D5FFE743F6B6
:101B80000400C4F202000068C0F3881041F600317E
:101B9000C0F2B701A0FB0101059A0023FEF778FB14
:101BA000049012E043F60400C4F202000068C0F39F
:101BB000881042F20041C0F2F401A0FB0101059A35
:101BC0000023FEF765FB0490FFE743F60400C4F230
:101BD0000200006800F44031022000EBD130039095
:101BE00004980399B0FBF1F0029005E042F2004046
:101BF000C0F2F4000290FFE7029806B080BD00003A
:101C000080B586B00490049820B9FFE701208DF8D4
:101C1000170050E304980078C007002800F0A58062
:101C2000FFE743F60800C4F20200006800F00C0071
:101C3000042813D0FFE743F60800C4F2020000684E
:101C400000F00C0008281ED1FFE743F60400C4F2A0
:101C5000020000684002002815D5FFE743F60000A7
:101C6000C4F20200006800F400310020B0EB514FD4
:101C700008D0FFE70498406820B9FFE701208DF8FD
:101C8000170018E370E0FFE704984068B0F5803F64
:101C900009D1FFE743F60001C4F20201086840F4ED
:101CA0008030086020E004984068B0F5A02F0DD186
:101CB000FFE743F60001C4F20201086840F4802007
:101CC0000860086840F4803008600CE043F60001CA
:101CD000C4F20201086820F480300860086820F42B
:101CE00080200860FFE7FFE7FFE704984068E8B15D
:101CF000FFE7FFF7C5FC0390FFE743F60000C4F2DF
:101D00000200006800F400310020B0EB514F0CD10C
:101D1000FFE7FFF7B5FC0399401A652804D3FFE7F6
:101D200003208DF81700C6E2E7E71CE0FFF7A8FCE8
:101D30000390FFE743F60000C4F20200006800F4DD
:101D400000310020B0EB514F0CD0FFE7FFF798FCBB
:101D50000399401A652804D3FFE703208DF8170084
:101D6000A9E2E7E7FFE7FFE7FFE7049800788007CD
:101D7000002840F19680FFE743F60800C4F2020015
:101D8000006810F00C0F13D0FFE743F60800C4F210
:101D90000200006800F00C0008282CD1FFE743F691
:101DA0000400C4F2020000684002002823D4FFE7C8
:101DB00043F60000C4F20200006800F002010020B7
:101DC000B0EB510F09D0FFE70498C068012804D098
:101DD000FFE701208DF817006DE243F60001C4F221
:101DE0000201086820F0F800049A126940EAC20073
:101DF0000860FFE754E00498C06870B3FFE7002173
:101E0000C4F2472101200860FFF73AFC0390FFE786
:101E100043F60000C4F20200006800F00201002056
:101E2000B0EB510F0CD1FFE7FFF72AFC0399401AE2
:101E3000032804D3FFE703208DF817003BE2E7E710
:101E400043F60001C4F20201086820F0F800049A89
:101E5000126940EAC200086021E00021C4F2472173
:101E600000200860FFF70CFC0390FFE743F600003A
:101E7000C4F20200006800F002010020B0EB510F34
:101E80000CD0FFE7FFF7FCFB0399401A032804D3AB
:101E9000FFE703208DF817000DE2E7E7FFE7FFE714
:101EA000FFE704980078000700284BD5FFE7049867
:101EB000406918B3FFE740F68061C4F24721012072
:101EC0000860FFF7DDFB0390FFE743F67400C4F200
:101ED0000200006800F002010020B0EB510F0CD1AD
:101EE000FFE7FFF7CDFB0399401A032804D3FFE770
:101EF00003208DF81700DEE1E7E722E040F680617D
:101F0000C4F2472100200860FFF7BAFB0390FFE707
:101F100043F67400C4F20200006800F002010020E1
:101F2000B0EB510F0CD0FFE7FFF7AAFB0399401A63
:101F3000032804D3FFE703208DF81700BBE1E7E790
:101F4000FFE7FFE7049800784007002840F1CE80C3
:101F5000FFE700208DF8070043F64000C4F20200BE
:101F60000068C000002815D4FFE7FFE700200090BC
:101F700043F64000C4F20200016841F08051016064
:101F8000006800F0805000900098FFE701208DF875
:101F90000700FFE747F20000C4F200000068C00538
:101FA000002822D4FFE747F20001C4F200010868CC
:101FB00040F480700860FFF763FB0390FFE747F28F
:101FC0000000C4F200000068C00500280CD4FFE740
:101FD000FFF756FB0399401A032804D3FFE70320B9
:101FE0008DF8170067E1EAE7FFE7FFE704988068EC
:101FF000012809D1FFE743F67001C4F20201086825
:1020000040F0010008601FE00498806805280DD1A9
:10201000FFE743F67001C4F20201086840F00400D3
:102020000860086840F0010008600CE043F67001A9
:10203000C4F20201086820F001000860086820F07E
:1020400004000860FFE7FFE7FFE704988068F8B145
:10205000FFE7FFF715FB0390FFE743F67000C4F2BC
:102060000200006800F002010020B0EB510F0ED119
:10207000FFE7FFF705FB0399401A41F289318842D7
:1020800004D3FFE703208DF8170014E1E5E71EE015
:10209000FFF7F6FA0390FFE743F67000C4F2020080
:1020A000006800F002010020B0EB510F0ED0FFE7F6
:1020B000FFF7E6FA0399401A41F28931884204D3C6
:1020C000FFE703208DF81700F5E0E5E7FFE79DF84F
:1020D0000700012809D1FFE743F64001C4F20201DD
:1020E000086820F080500860FFE7FFE704988069E7
:1020F000002800F0DC80FFE743F60800C4F202008D
:10210000006800F00C00082800F08580FFE70498C4
:10211000806902285CD1FFE76021C4F247210020DA
:102120000860FFF7ADFA0390FFE743F60000C4F242
:102130000200006800F000710020B0EB516F0CD07D
:10214000FFE7FFF79DFA0399401A032804D3FFE73E
:1021500003208DF81700AEE0E7E70499C869D1F8CD
:1021600020C04B6A8A6A40EA0C0040EA8310D2031E
:102170004FF6FF739A43A2F580321043C96A40EAD2
:10218000016043F60401C4F2020108606021C4F258
:10219000472101200860FFF773FA0390FFE743F639
:1021A0000000C4F20200006800F000710020B0EBF3
:1021B000516F0CD1FFE7FFF763FA0399401A032828
:1021C00004D3FFE703208DF8170074E0E7E721E070
:1021D0006021C4F2472100200860FFF751FA039004
:1021E000FFE743F60000C4F20200006800F000714F
:1021F0000020B0EB516F0CD0FFE7FFF741FA0399D5
:10220000401A032804D3FFE703208DF8170052E09B
:10221000E7E7FFE74AE004988069012804D1FFE777
:1022200001208DF8170046E043F60400C4F20200D6
:102230000068029004988069012831D0FFE7029875
:1022400000F480000499C969884229D1FFE7029807
:1022500000F03F000499096A884221D1FFE7029803
:1022600047F6C07108400499496AB0EB811F17D145
:10227000FFE7029800F440300499896AC9034FF6D9
:10228000FF729143A1F58031884209D1FFE702989E
:1022900000F070600499C96AB0EB016F04D0FFE7E9
:1022A00001208DF8170006E0FFE7FFE7FFE70020B9
:1022B0008DF81700FFE79DF8170006B080BD0000FD
:1022C00080B582B00190019800F0E8FB02B080BDBB
:1022D00081B0009001B0704781B0009001B07047AC
:1022E00085B003900291FFE7039890F83C00012825
:1022F00004D1FFE702208DF813007EE0039901204E
:1023000081F83C00FFE7FFE70399022081F83D00D8
:102310000398006840680190039800688068009006
:10232000019820F07000019002980168019808431C
:10233000019001980399096848600398006800219A
:10234000C4F2010188423CD0FFE703980068B0F175
:10235000804F36D0FFE70398006840F20041C4F296
:10236000000188422DD0FFE70398006840F6000185
:10237000C4F20001884224D0FFE70398006840F6C9
:102380000041C4F2000188421BD0FFE703980068B7
:1023900040F20041C4F20101884212D0FFE70398E5
:1023A000006844F20001C4F20101884209D0FFE74D
:1023B0000398006841F60001C4F2000188420ED182
:1023C000FFE7009820F08000009002984168009894
:1023D000084300900098039909688860FFE7039913
:1023E000012081F83D00FFE70399002081F83C00BF
:1023F000FFE700208DF81300FFE79DF8130005B0FC
:102400007047000080B582B00090009820B9FFE7C7
:1024100001208DF807003FE0009890F83D0040B99A
:10242000FFE70099002081F83C00009800F038F8A0
:10243000FFE70099022081F83D00009951F8040B54
:1024400000F0D2FB0099012081F84600FFE70099D7
:10245000012081F83E00009981F83F00009981F841
:102460004000009981F84100FFE7FFE70099012053
:1024700081F84200009981F84300009981F84400F6
:10248000009981F84500FFE70099012081F83D009F
:1024900000208DF80700FFE79DF8070002B080BD1F
:1024A00080B584B003900398006841F20001C4F243
:1024B000000188421BD1FFE7FFE70020029043F6AE
:1024C0004000C4F20200016841F0100101600068A0
:1024D00000F0100002900298FFE7362001900022E1
:1024E0001146FFF765F90198FFF758F9FFE704B0C7
:1024F00080BD000083B00190019890F83D00012854
:1025000004D0FFE701208DF80B006AE0019902205A
:1025100081F83D0001980168C86840F00100C8607A
:10252000019800680021C4F2010188423CD0FFE715
:1025300001980068B0F1804F36D0FFE7019800683D
:1025400040F20041C4F2000188422DD0FFE701981B
:10255000006840F60001C4F20001884224D0FFE781
:102560000198006840F60041C4F2000188421BD087
:10257000FFE70198006840F20041C4F2010188427F
:1025800012D0FFE70198006844F20001C4F2010193
:10259000884209D0FFE70198006841F60001C4F2C3
:1025A0000001884212D1FFE701980068806800F0BE
:1025B000070000900098062807D0FFE701980168FF
:1025C000086840F001000860FFE706E00198016834
:1025D000086840F001000860FFE700208DF80B005C
:1025E000FFE79DF80B0003B07047000081B000903A
:1025F00001B0704780B584B0039003980068C0684C
:10260000029003980068006901909DF8040080071B
:10261000002824D5FFE79DF80800800700281DD575
:10262000FFE7039801686FF0020008610399012039
:102630000877039800688069800720B1FFE7039856
:10264000FFF7D4FF06E0039800F0E2F8039800F0EB
:10265000E3F8FFE7039900200877FFE7FFE79DF81D
:1026600004004007002825D5FFE79DF80800400733
:1026700000281ED5FFE7039801686FF00400086189
:1026800003990220087703980068806910F4407F5E
:1026900004D0FFE70398FFF7A9FF06E0039800F0D6
:1026A000B7F8039800F0B8F8FFE70399002008771F
:1026B000FFE7FFE79DF804000007002824D5FFE7A7
:1026C0009DF80800000700281DD5FFE70398016862
:1026D0006FF00800086103990420087703980068E8
:1026E000C069800720B1FFE70398FFF77FFF06E08E
:1026F000039800F08DF8039800F08EF8FFE7039937
:1027000000200877FFE7FFE79DF80400C0060028D7
:1027100025D5FFE79DF80800C00600281ED5FFE775
:10272000039801686FF0100008610399082008778A
:1027300003980068C06910F4407F04D0FFE7039855
:10274000FFF754FF06E0039800F062F8039800F0EA
:1027500063F8FFE7039900200877FFE7FFE79DF89C
:102760000400C00778B1FFE79DF80800C00748B132
:10277000FFE7039801686FF001000861039800F01B
:102780004FF8FFE7FFE79DF804000006002810D58A
:10279000FFE79DF808000006002809D5FFE7039829
:1027A00001686FF0800008610398FFF791FDFFE773
:1027B000FFE79DF804004006002810D5FFE79DF8CC
:1027C00008004006002809D5FFE7039801686FF06C
:1027D00040000861039800F037F8FFE7FFE79DF835
:1027E00004008006002810D5FFE79DF80800800649
:1027F000002809D5FFE7039801686FF02000086101
:102800000398FFF769FDFFE7FFE704B080BD000014
:1028100081B0009001B0704781B0009001B0704766
:1028200080B582B00190019840F2B411C2F200016B
:10283000884207D1FFE740F2B000C2F2000000F08A
:1028400029FCFFE702B080BD81B0009001B0704765
:10285000FFE7FEE780B582B040F28C10C2F20000C4
:10286000009046F20041C4F2000101600321416082
:10287000002101918160C1604FF4102202614FF488
:1028800040124261017641768176C17601774177C7
:10289000FEF7C0FA18B1FFE7FDF70AFEFFE702B046
:1028A00080BD000080B590B000200F900E900D907C
:1028B0000C900B90FFE700200A9043F63000C4F222
:1028C0000200016841F001010160006800F00100B0
:1028D0000A900A98FFE7FFE70020099043F63000CE
:1028E000C4F20200016841F008010160006800F0D4
:1028F000080009900998FFE7FFE70020089043F6D9
:102900003000C4F20200016841F0800101600068FB
:1029100000F0800008900898FFE7FFE7002007908C
:1029200043F63000C4F20200016841F00201016088
:10293000006800F0020007900798FFE7FFE700201B
:10294000069043F63000C4F20200016841F0100125
:102950000160006800F0100006900698FFE741F261
:102960000000C4F2020002904FF4006100910122C5
:102970000192FEF76DFE04200B904FF488100C902E
:1029800002200D9040F20040C4F202000BA9039116
:10299000FEF766FC009B019A029803990B930C9238
:1029A000002204920D920E92FEF75AFC049A08201F
:1029B00005901146FEF7FCFE0598FEF7EFFE10B0FD
:1029C00080BD000080B582B000210191009140F2ED
:1029D000B410C2F2000041F20002C4F20002026030
:1029E00040F2E732426081606322C2608161FFF79A
:1029F00009FD18B1FFE7FDF75BFDFFE70020009040
:102A0000019040F2B410C2F200006946FFF768FC82
:102A100018B1FFE7FDF74CFDFFE702B080BD0000F5
:102A2000FFE7FEE7FFE7FEE788B007900691059213
:102A3000079800F0070004900498C0F107000528EB
:102A400003D3FFE70420019004E00498C0F10700DD
:102A50000190FFE70198039004980430062803D8FA
:102A6000FFE70020009003E0049803380090FFE7A0
:102A70000098029006980399012202FA01F10139A7
:102A80000840029B984005999A40013A114008433A
:102A900008B07047704700007047000080B582B0F2
:102AA000009000980138B0F1807F03D3FFE7012048
:102AB000019019E0009801384EF21401CEF20001A5
:102AC00008604FF0FF300F2100F04AFD4EF2180170
:102AD000CEF20001002008604EF21002CEF2000299
:102AE000072111600190FFE7019802B080BD00004E
:102AF00080B5FEF7CBFD80BD80B594B008A830212D
:102B0000FDF73EFC0020079006900590049003908E
:102B1000FFE70020029043F64000C4F20200016883
:102B200041F080510160006800F0805002900298EE
:102B3000FFE7FFE70020019047F20000C4F2000029
:102B4000016841F440410160006800F44040019098
:102B50000198FFE7012008904FF48030099002208F
:102B60000E904FF480010F9106211091B421119124
:102B700012900420139008A8FFF742F818B1FFE75D
:102B8000FDF796FCFFE7FEF735FE18B1FFE7FDF70E
:102B90008FFCFFE70F200390022004900020059097
:102BA0004FF4A05006904FF48050079003A80521E1
:102BB000FEF780FE18B1FFE7FDF77AFCFFE714B0DF
:102BC00080BD00004EF68851CEF20001086840F446
:102BD000700008607047000080B540F2B410C2F287
:102BE0000000FFF707FD80BD83B0029001910298BD
:102BF0000068009002980021C4F20101884225D0AB
:102C0000FFE70298B0F1804F20D0FFE7029840F232
:102C10000041C4F20001884218D0FFE7029840F654
:102C20000001C4F20001884210D0FFE7029840F68C
:102C30000041C4F20001884208D0FFE7029840F248
:102C40000041C4F2010188420AD1FFE7009820F058
:102C50007000009001984168009808430090FFE7D9
:102C600002980021C4F20101884255D0FFE7029882
:102C7000B0F1804F50D0FFE7029840F20041C4F21B
:102C80000001884248D0FFE7029840F60001C4F2F4
:102C90000001884240D0FFE7029840F60041C4F2AC
:102CA0000001884238D0FFE7029840F20041C4F2A8
:102CB0000101884230D0FFE7029844F20001C4F2DB
:102CC0000101884228D0FFE7029844F20041C4F293
:102CD0000101884220D0FFE7029844F60001C4F2C7
:102CE0000101884218D0FFE7029841F60001C4F2C2
:102CF0000001884210D0FFE7029841F60041C4F27B
:102D00000001884208D0FFE7029842F20001C4F2B5
:102D1000000188420AD1FFE7009820F4407000903B
:102D20000198C168009808430090FFE7009820F0E0
:102D300080000199496908430090019880680299D0
:102D4000C862019800680299886202980021C4F262
:102D50000101884208D0FFE7029840F20041C4F226
:102D60000101884205D1FFE70198006902990863D3
:102D7000FFE70299086840F004000860029901200A
:102D8000486100980299086003B07047FFE7FEE7CA
:102D900080B500F025FC80BD80B586B004A9019106
:102DA000059081ED000A0598029091ED000A90EDE2
:102DB000081AB4EE410AF1EE10FA04DDFFE70298BA
:102DC000006A049017E00298019991ED000A90EDD5
:102DD000081AB1EE411AB4EE410AF1EE10FA09DA1E
:102DE000FFE70198029991ED080AB1EE400A80EDE3
:102DF000000AFFE7FFE7019890ED000A9FED151A22
:102E000020EE010AB3EE041A80EE010ABDEEC00AFC
:102E100010EE100AADF80E009DF80F0040F27C1283
:102E2000C2F200021070BDF80E00507000239370C3
:102E3000D370137153719371D37140F28C10C2F23D
:102E4000000040F22C01C2F20001FDF75FFB06B06A
:102E500080BD00BF0000804687B0069005910492B7
:102E600003938DED020ACDED010A05980499401AED
:102E700000EE100AB8EEC00A9DED012A9DED021A7F
:102E800032EE412A20EE020A0398401A02EE100A9E
:102E9000B8EEC22A80EE020A30EE010A8DED000A79
:102EA0009DED000A07B0704780B588B004AA019272
:102EB000079006910798029006990A78497841EAA6
:102EC0000221ADF81610C1680161BDF9161000228B
:102ED00041F6FF739FED430ADFED430AFFF7BCFFA6
:102EE000029880ED030A90F82800C00738B1FFE788
:102EF0000299C8680861002081F82800FFE701985E
:102F0000029991ED030A91ED041A30EE410A80ED29
:102F1000000A90ED000A9FED351AB4EE410AF1EE79
:102F200010FA0ADDFFE7019890ED000A9FED311AD3
:102F300030EE010A80ED000A15E0019890ED000ADC
:102F40009FED2B1AB4EE410AF1EE10FA0ADAFFE710
:102F5000019890ED000A9FED241A30EE010A80EDF1
:102F6000000AFFE7FFE70298019991ED000A90ED52
:102F7000001A80EE010A80ED020A90ED010A90ED40
:102F8000021A30EE010A80ED010A06994988090407
:102F900009BA00EE101AB8EEC00A80ED050A0699CB
:102FA0000A79497941EA0221ADF80E10BDF90E10F7
:102FB0004CF20002CFF6FF724FF48043BBEE040ADE
:102FC000F3EE040AFFF748FF029880ED060A06991F
:102FD000897900EE101AB8EE400A80ED070A08B0B1
:102FE00080BD00BF000000000000B4430000344377
:102FF000000034C30000B4C380B588B006908DEDE6
:10300000050A0020C4F2FA3004904FF2C350C4F213
:103010005C2003904FF2C350C4F21C1002909DED4F
:10302000050A9FED191A20EE010A9FED181A80EE8D
:10303000010A8DED010A019807909DED070A00F045
:1030400019FB9FED131A20EE010A10EE100A00F092
:1030500077FE41EC100B51EC100B9FED090B53EC7C
:10306000102B00F0BFFC41EC100B51EC100B00F0EA
:1030700087FC00EE100A08B080BD00BF00BF00BF93
:103080000000000080842E41DB0F494000003443E3
:10309000074D844880B584B00390039801900021C7
:1030A000029190F8C81090F8C90088420ED0FFE74E
:1030B00001982C3000F008FA01986C3000F004FA06
:1030C000019991F8C80081F8C900FFE7019890F8CC
:1030D000C80008B9FFE743E0019890F8C80001284C
:1030E00010D1FFE701994869C1F8B80001F12C003F
:1030F00091ED2D0AD1ED2E0A00F03EF9019880EDF8
:10310000300A2CE0019890F8C800022826D1FFE789
:1031100001994868C1F8B0004869C1F8B80001F1E8
:103120006C0091ED2B0AD1ED2C0A00F025F90199E4
:1031300081ED2D0A91ED2D0A91ED2F1A30EE010A45
:1031400081ED2D0A01F12C0091ED2D0AD1ED2E0A11
:1031500000F012F9019880ED300AFFE7FFE7FFE782
:10316000019890ED010AFFF747FF019880ED310AC1
:1031700090ED300A90ED311A30EE010A8DED020A21
:1031800040F2FC10C2F200000078012803D1FFE7F2
:1031900000200290FFE701989DED020A9FED031ABF
:1031A00080EE010AFFF7F8FD04B080BD9A99993EC0
:1031B00010B5A8B027908DED260A8DF897102798A6
:1031C0000490269901600021029141608160C160F4
:1031D000016141618161C1610021C4F2701101622C
:1031E0000021C4F27A4141622C309FED5A2A8DEDC4
:1031F000032AF7EE002ACDED012AB0EE420AF0EEE6
:10320000420AB0EE421AF0EE421A00F06BF904984E
:10321000DDED012A9DED032A6C30B0EE420AF0EE9E
:10322000420AB0EE421AF0EE421A00F05BF904983E
:103230000299DDED030AC0F8AC10C0F8B010C0F878
:10324000B410C0F8B810C0F8BC10C0F8C010C0F876
:10325000C4109DF8971080F8C81090ED082AD0EDA2
:10326000091A15A89FED3C0A9FED3C1ADFED3C2A98
:1032700000F038F904981599169A179BDDF860C08C
:10328000DDF864E01A9C0464C0F83CE0C0F838C083
:1032900043630263C1621B991C9A1D9BDDF878C0D1
:1032A000DDF87CE0209C8465C0F854E0C0F850C094
:1032B000C364826441642199229A239BDDF890C003
:1032C000C0F868C043660266C16590ED092A05A88A
:1032D0009FED240ADFED240A9FED241ADFED241A66
:1032E000DFED242A00F0FEF804980599069A079B62
:1032F000DDF820C0DDF824E00A9CC0F88040C0F86A
:103300007CE0C0F878C043670267C1660B990C9AED
:103310000D9BDDF838C0DDF83CE0109CC0F898400B
:10332000C0F894E0C0F890C0C0F88C30C0F8882095
:10333000C0F884101199129A139BDDF850C0C0F8A0
:10334000A8C0C0F8A430C0F8A020C0F89C1028B0D5
:1033500010BD00BF000000006F12033C3480B73B7B
:10336000CDCC4C3D000048438FC2753C00005C430F
:103370000000C8428FC2753D84B003908DED020AF3
:10338000CDED010A039800900299C1610199016293
:1033900090ED070A90ED081A30EE410A80ED090A17
:1033A00090ED000A90ED091A20EE010A80ED0C0A5A
:1033B00090ED091A90ED0A0A30EE010A80ED0A0A32
:1033C00090ED041A90ED0A0AB4EE410AF1EE10FAFB
:1033D00004DDFFE700990869886215E0009890ED28
:1033E000041A90ED0A0AB1EE411AB4EE410AF1EE68
:1033F00010FA08DAFFE7009890ED040AB1EE400AEF
:1034000080ED0A0AFFE7FFE7009890ED010A90EDD2
:103410000A1A20EE010A80ED0D0A90ED020A90EDE5
:10342000091A90ED0B2A31EE421A20EE010A80EDC6
:103430000E0A90ED030A90ED0E2A90ED0F3AB7EECA
:10344000001A31EE401A21EE031A20EE020A30EE85
:10345000010A80ED0E0A416AC162816BC16390ED81
:103460000C0A90ED0D2A90ED0E1A30EE020A30EEA5
:10347000010A80ED060A90ED051A90ED060AB4EEF9
:10348000410AF1EE10FA04DDFFE70099486988610E
:1034900015E0009890ED051A90ED060AB1EE411A7C
:1034A000B4EE410AF1EE10FA08DAFFE7009890ED69
:1034B000050AB1EE400A80ED060AFFE7FFE7009833
:1034C00090ED060A04B0704781B00090009900208A
:1034D000C86348630863C862886248620862C8615A
:1034E00001B0704787B006908DED050ACDED040A56
:1034F0008DED031ACDED021A8DED012ACDED002AD6
:1035000006980599016004994160039981600099CA
:10351000C160029901610199416107B070470000E3
:1035200081B08DF803009DF9030000280ED4FFE759
:103530009DF9031001F01F02012090404A094EF24C
:103540000011CEF2000141F82200FFE701B0704700
:103550004EF60C50CEF200000068C0F30220704717
:1035600082B08DF8070000919DF9070000280AD469
:10357000FFE7009800019DF907104EF20042CEF2DD
:10358000000288540BE0009800019DF8071001F03C
:103590000F014EF61452CEF200028854FFE702B03B
:1035A0007047000083B00290029800F0070000907E
:1035B0004EF60C51CEF200010868019001984FF6CA
:1035C000FF02104001900198009A40EA0220002278
:1035D000C0F2FA52104301900198086003B070479E
:1035E00080B540F2B000C2F200009FED030A022154
:1035F000FFF7DEFD80BD00BF9A99994180B582B08A
:1036000000200190FEF750F8FFF776FAFFF74AF92D
:10361000FFF720F9FFF7D6F940F28C10C2F2000054
:10362000009040F20401C2F20001FDF71BF800987F
:10363000FDF76EFD00980221FCF73EFF40F2B4104A
:10364000C2F20000FEF756FFFFE7FEE74100080266
:1036500018BF04200A0E18BF40F001004FF07F424F
:1036600032EA010108BF40F00200012808BF05202E
:103670007047000000B510EE101A2DED028B81B0DE
:10368000524A6846B2EB410F2ED94FF0E640B0EBFC
:10369000410F94BF00204FF0FF3000900098B0EE33
:1036A000408A00286ADB10F0010F4BD068EE080A50
:1036B0009FED471A9FED470A00EE810A9FED461ADB
:1036C00010F0020F00EE801AB7EE000A00EE810A39
:1036D00002BF01B0BDEC028B00BD00BF01B0B1EE76
:1036E000400ABDEC028B00BD3C4B21F000429342EE
:1036F00041D911F0004FDFED3A0A20EE201ADFED3C
:10370000390A19BF31EE601A71EE200A31EE201A23
:1037100071EE600ABDEEE01A11EE100A9FED321A4A
:1037200000F0030000EEC10A9FED301A009000EE99
:10373000C10A9FED2F1A00EEC10A9FED2E1A00EE6E
:10374000C10AABE728EE080A9FED2B1ADFED2B0A22
:1037500010F0020F40EE010A9FED291A00EE201A28
:1037600061EE000AB0EE480A08EE200AB6D101B0B8
:10377000BDEC028B00BD00F059F88FE718EE100A7F
:103780004000B0F17F4F0DD218EE100AFFF75EFF38
:10379000042808BF00F042F8B0EE480A01B0BDECC2
:1037A000028B00BD09D10120FCF72BFE01B0BDEC5E
:1037B000028B5DF804EB00F029B801B0B0EE480AC6
:1037C000BDEC028B5DF804EB00F01CB8B61F927ED6
:1037D000B93AB2BACA9F2A3DDDFFFFBE490E49463B
:1037E00083F9223F0000004B0000C93F00A0FD39D3
:1037F0000020A2331A61342C336D4CB9DA82083CB4
:10380000A0AA2ABE30EE000A70470000DFED020ACF
:1038100080EEA00A70470000000000009FED020A41
:1038200020EE000A70470000000000102DE9F001B2
:103830004FF07F42B2EB410F9FBF4FF0FF3101606D
:10384000BDE8F00170474FF0004242EA0123C1F3A6
:10385000C752783A551112F01F0C434CCCF1200698
:103860007C44C1F3C752A2F178024FEA621204EB22
:10387000820254F8254008BFD2E9015612D055689B
:1038800004FA0CF425FA06F73C43976805FA0CF5A0
:1038900027FA06F8D26807FA0CFCF24045EA080558
:1038A0004CEA0206A4FB034CA5FB0352A6FB0363F0
:1038B0001D449D4234BF012600261319334416B11E
:1038C000934202D903E0934201D2012200E0002298
:1038D000624402F1200C9206DC0C42EA443200EE13
:1038E000102A5B03DFED210AF8EEC01A00EE103A51
:1038F0004FEA9C1C11F0004FB8EE400AC0F800C01F
:1039000020EE201A00EE105ADFED190AB8EE400A38
:1039100020EE200A71EE810A70EE800A10EE902AE5
:1039200002F500626FF30B0200EE902A70EEE11ACE
:1039300031EEC11ADFED101A30EE411A9FED0D0A7B
:1039400020EE800A01EE210A9FED0C1A00EE810A9A
:1039500004BFBDE8F0017047CCF180510160BDE8C3
:10396000F001B1EE400A7047E405000000000036A7
:103970000000802C22AAFD29DB0FC92F0000C92FCF
:1039800021F0004201F00043A2F16052B2F5801F25
:1039900028BFD2F17F6C0BD95FEA001C43EAC20258
:1039A00042EB507018BF704728BF20F001007047ED
:1039B000B2F5801FBCBF184670474FEA410C1CF59A
:1039C000001F02D2084600F039BA70B500F064F961
:1039D00000000089FFF7F6BF4FF00040A0F580001F
:1039E000704700002DE9C04130B4DFF8A4C23CEAC2
:1039F000111418BF3CEA131400F0ED801CEA1114F6
:103A000081EA030544EAD57418BF1CEA131500F0D7
:103A1000C880A4EB050404F17F7404F500344FF072
:103A2000004545EAC12145EAC32341EA505143EA32
:103A300052534FEAC0204FEAC222994208BF904237
:103A400000F09D804FEA13650FF24416765D4FEA51
:103A5000134506FB05F7C7F1807706FB07F74FEA2A
:103A6000D737A7FB03687642A7FB06CEC8F5803898
:103A700038BFA8F1010807FB08E6A6FB028C4FF04F
:103A8000000EE6FB03CEDCF1000CCEF1004E38BF99
:103A9000AEF1010EA6FB0C584FF00007E6FB0E87B7
:103AA000A1FB08C6A0FB07CE16EB0E064FF00005E3
:103AB00045F10005E1FB076515F1E04E7EBFA4F579
:103AC00080345FEA46066D4116F1800745F1000536
:103AD0004FEA172747EA05674FEA15254FEA0666BA
:103AE000A6F1DE46B6F1805F20D9384605EBC471F9
:103AF00024F0010C01EB0C11BCF1FE6F02D8F0BCFC
:103B0000BDE8008124425CBF01F5801E9EEAC47FAF
:103B100002D4F0BCBDE80081244200F13980A1F15B
:103B2000C041F0BCBDE8004100F004B94FEAD0202C
:103B300040EA41504FEAD1214FEAD22242EA4352B1
:103B40004FEAD323A7FB028607FB036605FB026649
:103B50001EEA0E0F58BFA6EB0056B6EB00564FEA12
:103B6000520E4EEAC37E18EB0E0E56EB530EBCD52A
:103B700018EB02085E417F1C55F10005B5E74FF4D4
:103B800080154FF000074FF000064FF00008ACE73B
:103B900001F1C04101F000414FF00000F0BCBDE870
:103BA00000810CEA131511EA0C1F00D00CE013EA97
:103BB0000C1F00F026804FF0000081EA030101F0A5
:103BC0000041F0BCBDE80081F0BCBDE8004181EAE5
:103BD000030100F0AFB8F0BCBDE8004170B500F0E3
:103BE0005BF800BF097EFC3E00F007B84FF0000014
:103BF00081EA030101F00041704781EA030100F00E
:103C000099B8F0BCBDE8004122494FF00000704770
:103C1000FFFDFBF9F7F5F4F2F0EEEDEBE9E8E6E491
:103C2000E3E1E0DEDDDBDAD8D7D5D4D3D1D0CFCD18
:103C3000CCCBCAC8C7C6C5C4C2C1C0BFBEBDBCBB51
:103C4000BAB9B8B7B6B5B4B3B2B1B0AFAEADACAB4C
:103C5000AAA9A8A8A7A6A5A4A3A3A2A1A09F9F9E26
:103C60009D9C9C9B9A9999989797969595949393D8
:103C7000929191908F8F8E8E8D8C8C8B8B8A89896F
:103C800088888787868585848483838282818180F2
:103C90000000FF070000F87F0EF1020E2EF0030E69
:103CA0005EF8046B364205D4012A43EB030515F593
:103CB000001F12D8012841EB010C1CF5001F0CD885
:103CC0000ED14FEAD17C0CEB4C0C0CF1020C15F52B
:103CD000001F08BF4CEBD37C04E04FF0080C01E060
:103CE0004FEAD37C0CEB4C0526FA05F606F00706E6
:103CF000B6F1040C06D20EEB860CBDE870404CF019
:103D0000010C6047DFE80CF0090B02024FF00041A4
:103D1000A1F500214FF0000070BD194610460128A2
:103D200051EB010418BFD4F5001484BF002001F04A
:103D3000004170BD0808A0F500114FEA310170473D
:103D400043004FEAD30C4FEA3C0C43401FBF4007EF
:103D50000CF1605113F0FE4F70471CF0006F03D15F
:103D60000CF00041002070470CF0004343EA507013
:103D700040EACC0010B500F00EF800BF0000009241
:103D80004FEA0001FFF7D6BF4FF00041A1F5002137
:103D90004FF0000070470EF1020E2EF0030E5EF899
:103DA000044B244204D44FEA4102B2F17F4F11D8B0
:103DB0004FEA4003B3F17F4F0CD80ED14FEAD07CCD
:103DC0000CEB4C0C0CF1020CB2F17F4F08BF4CEB2A
:103DD000D17C04E04FF0080C01E04FEAD17C0CEB01
:103DE0004C0324FA03F404F00704B4F1040C06D2E3
:103DF0000EEB840CBDE810404CF0010C6047DFE88E
:103E00000CF0070802024FF00040A0F5800010BD42
:103E10000846420018BFD2F1807288BF00F000400F
:103E200010BDF1EE100A4FF6FF71C0F2C03120EA6A
:103E3000010040F04070E1EE100A7047FF2141EAB6
:103E4000D050C00570470000000000006E83F9A24A
:103E50002915444ED15727FCC0DD34F5999562DB16
:103E60004190433CAB6351FE0000000000000000A5
:103E70000102030406070809A03E00080000002014
:103E800050000000E8010008F03E0008500000204B
:103E9000B807000004020008F9EEFFFF0000000070
:103EA0000024F400000000000000000000000000FA
:103EB0000000000000000000000000000000000002
:103EC00001000000010000000000000000020000EE
:103ED00000000000000000000000000008000000DA
:103EE00000000000010000001000000000000000C1
:04000005080001AD41
:00000001FF
