:020000040800F2
:10000000D0070020510200082926000855240008C6
:10001000252600086D040008912900080000000052
:100020000000000000000000000000009D26000805
:10003000810400080000000099260008F526000849
:100040006B0200086B0200086B0200086B020008DC
:100050006B0200086B0200086B0200086B020008CC
:10006000850400086B0200086B0200086B020008A0
:100070006B0200086B0200086B0200086B020008AC
:100080006B0200086B0200086B0200086B0200089C
:10009000710400086B0200086B0200086B02000884
:1000A0006B0200086B0200086B0200086B0200087C
:1000B0006B0200086B0200086B0200086B0200086C
:1000C0006B0200086B0200086B0200086B0200085C
:1000D0006B0200086B0200086B0200086B0200084C
:1000E0006B0200086B0200086B0200086B0200083C
:1000F0006B0200086B0200086B0200086B0200082C
:100100006B0200086B0200086B0200086B0200081B
:100110006B0200086B020008DD2700086B02000874
:100120006B0200086B0200086B0200086B020008FB
:100130006B0200086B0200086B0200086B020008EB
:100140006B0200086B0200086B0200086B020008DB
:100150006B0200086B0200086B0200086B020008CB
:100160006B0200086B0200086B0200086B020008BB
:100170006B0200086B0200086B0200080000000020
:100180006B0200086B0200086B0200086B0200089B
:100190006B0200086B0200086B0200086B0200088B
:1001A00000000000000000006B02000800F002F8F0
:1001B00000F03EF80AA090E8000C82448344AAF1C3
:1001C0000107DA4501D100F033F8AFF2090EBAE8C1
:1001D0000F0013F0010F18BFFB1A43F0010318477B
:1001E0003C2A00005C2A0000103A24BF78C878C17D
:1001F000FAD8520724BF30C830C144BF04680C602D
:10020000704700000023002400250026103A28BF74
:1002100078C1FBD8520728BF30C148BF0B60704778
:100220001FB502F0E5FC00F0D5F81FBD10B510BDFC
:1002300000F0E6F81146FFF7F3FF02F0B1FC00F022
:1002400004F903B4FFF7F2FF03BC00F007F9000064
:100250000948804709480047FEE7FEE7FEE7FEE75A
:10026000FEE7FEE7FEE7FEE7FEE7FEE70448054996
:10027000054A064B70470000C9270008AD01000879
:10028000D0010020D0070020D0030020D0030020A0
:1002900053EA020C00F069802DE9F04B4FF00006A4
:1002A000002B1FBFB3FA83F503FA05F424FA05F611
:1002B0005E4012BF1643B2FA82F502FA05F4C5F1A8
:1002C00020051EBF22FA05FC44EA0C04203556EA3C
:1002D000044C4FEA144418BF641C4FF000084FF060
:1002E0000009904271EB030C39D3002919BFB1FA10
:1002F00081F701FA07F6B0FA80F700FA07F6C7F1BE
:1003000020071EBF20FA07FC46EA0C062037B6FB82
:10031000F4FCA7EB0507103F07F01F0BCBF12006FD
:100320002CFA06F60CFA0BFB44BFB3460026202F2E
:10033000A4BF5E464FF0000B5BEA060C08BF4FF00F
:10034000010B19EB0B0948EB0608ABFB027C06FB23
:1003500002CC0BFB03CCC01B71EB0C01C1E70B46BD
:10036000024641464846BDE8F08B13B5084318BF26
:100370004FF0FF300146AFF30080BDE81C407047EE
:100380004FF0000200B5134694469646203922BF2E
:10039000A0E80C50A0E80C50B1F12001BFF4F7AF79
:1003A000090728BFA0E80C5048BF0CC05DF804EB5B
:1003B000890028BF40F8042B08BF704748BF20F8C9
:1003C000022B11F0804F18BF00F8012B70477047C7
:1003D0007047704770B5064C7C44064D7D4404E080
:1003E0002046016808448047241DAC42F8D170BD06
:1003F0006028000060280000004870473800002096
:100400007546FFF7F9FFAE4605006946534620F0F2
:100410000700854618B020B5FFF728FFBDE820404B
:100420004FF000064FF000074FF000084FF0000BB0
:10043000AC46ACE8C009ACE8C009ACE8C009ACE81F
:10044000C00921F007018D46704710B50446AFF38F
:1004500000802046BDE81040FFF7F3BE0149182098
:10046000ABBEFEE72600020070470000FFE7FEE794
:1004700080B540F25C10C2F2000000F00BF980BDC4
:100480007047000080B5042000F0E0FC80BD000053
:1004900072B6FFE7FEE7000084B002900191029877
:1004A00090F820008DF803009DF80300012805D086
:1004B000FFE79DF8030002280AD1FFE7019A02989E
:1004C000016848691043486100208DF80F0008E07A
:1004D0000299486A40F48020486201208DF80F009C
:1004E000FFE79DF80F0004B07047000086B004904D
:1004F0000391049890F820008DF803009DF8030004
:10050000012806D0FFE79DF80300022840F0B080E4
:10051000FFE746F20040C4F2000001900199D1F8D3
:10052000000240F00100C1F800020199D1F8000278
:1005300020F47C50C1F800020398426A0199D1F876
:10054000000240EA0220C1F800020398406900F06E
:100550001F01012088400290029A0199D1F81C02E3
:100560009043C1F81C020398C069F0B9FFE7029AF2
:100570000199D1F80C029043C1F80C02039A9088BB
:10058000D168526940EA0140019901EBC201C1F80A
:100590004002039A10889168526940EA014001992B
:1005A00001EBC201C1F84402FFE70398C0690128CA
:1005B0001ED1FFE7029A0199D1F80C021043C1F84D
:1005C0000C02039A90881168526940EA014001992F
:1005D00001EBC201C1F84002039A90899168526907
:1005E00040EA0140019901EBC201C1F84402FFE772
:1005F0000398806940B9FFE7029A0199D1F8040293
:100600009043C1F8040207E0029A0199D1F804026C
:100610001043C1F80402FFE70398006940B9FFE7FF
:10062000029A0199D1F814029043C1F8140207E02C
:10063000029A0199D1F814021043C1F81402FFE79D
:100640000398006A012808D1FFE7029A0199D1F8BE
:100650001C021043C1F81C02FFE70199D1F8000207
:1006600020F00100C1F8000200208DF8170008E01A
:100670000499486A40F48020486201208DF81700F0
:10068000FFE79DF8170006B07047000081B00090AA
:1006900001B0704780B58AB0099000200890099891
:1006A00000684069079009980068406806900998BA
:1006B00000688068059009980068C06804900998EF
:1006C00000680069039009980068806902909DF8AD
:1006D0001C00C007002800F09480FFE79DF814007C
:1006E000C00758B3FFE709980168012088609DF8AA
:1006F00014008007002804D5FFE7099800F064FB88
:100700001BE09DF814004007002805D5FFE7089876
:1007100040F4006008900FE09DF8140000070028E6
:1007200005D5FFE7089840F48050089003E0099849
:1007300000F046FBFFE7FFE7FFE7FFE79DF8150046
:10074000C00760B3FFE7099801684FF480708860C4
:100750009DF815008007002804D5FFE7099800F0F0
:100760003BFB1BE09DF815004007002805D5FFE77F
:10077000089840F4005008900FE09DF8150000071D
:10078000002805D5FFE7089840F48040089003E072
:10079000099800F01DFBFFE7FFE7FFE7FFE79DF883
:1007A0001600C00760B3FFE7099801684FF4803076
:1007B00088609DF816008007002804D5FFE7099897
:1007C00000F012FB1BE09DF816004007002805D53D
:1007D000FFE7089840F4004008900FE09DF81600ED
:1007E0000007002805D5FFE7089840F480300890FE
:1007F00003E0099800F0F4FAFFE7FFE7FFE7FFE7FF
:10080000FFE79DF81C000007002810D5FFE79DF8C2
:100810001000C006002809D5FFE7089840F40070D2
:100820000890099801681020C860FFE7FFE79DF86D
:100830001C00400700280FD5FFE79DF810000007B7
:10084000002808D5FFE7099801680820C8600998C2
:1008500000F05CFAFFE7FFE79DF81C008007002826
:100860000BD5FFE709980068C068800720B1FFE753
:10087000099800F04FFAFFE7FFE79DF81C004006DB
:10088000002810D5FFE79DF80C00C006002809D508
:10089000FFE7089840F480600890099801681020EC
:1008A0000861FFE7FFE79DF81C00800600280FD5D0
:1008B000FFE79DF80C000007002808D5FFE709981E
:1008C000016808200861099800F028FAFFE7FFE7AF
:1008D0009DF81C00C00600280BD5FFE709980068AA
:1008E0000069800720B1FFE7099800F01BFAFFE7D5
:1008F000FFE79DF81E00800700280FD5FFE79DF851
:100900001800C006002808D5FFE7099801681020E4
:100910004860099800F00AFAFFE7FFE79DF81E001B
:10092000C00778B1FFE79DF818000007002808D538
:10093000FFE70998016808204860099800F058FA14
:10094000FFE7FFE79DF81D000006002840F18D80BD
:10095000FFE79DF818004007002840F18180FFE77D
:100960009DF81D00C00750B1FFE79DF80800C007C3
:1009700028B1FFE7089840F001000890FFE79DF8D4
:100980001D00800700280BD5FFE79DF808008007B1
:10099000002805D5FFE7089840F002000890FFE71F
:1009A0009DF81D00400700280BD5FFE79DF80800C3
:1009B0004007002805D5FFE7089840F0040008909C
:1009C000FFE79DF81D000007002848D5FFE79DF8C8
:1009D000080010F0700F42D0FFE7029800F070009E
:1009E00001460191102814D0FFE70198202815D066
:1009F000FFE70198302816D0FFE70198402817D06C
:100A0000FFE70198502818D0FFE70198602819D017
:100A10001DE0089840F00800089019E0089840F0A0
:100A20001000089014E0089840F0200008900FE0B3
:100A3000089840F0400008900AE0089840F08000D4
:100A4000089005E0089840F48070089000E0FFE707
:100A500009980168886920F070008861FFE7FFE766
:100A60000998016804204860FFE7089848B1FFE74B
:100A7000089A0999486A104348620998FFF706FEE8
:100A8000FFE70AB080BD000080B584B002900298F4
:100A900020B9FFE701208DF80F00E0E0029890F800
:100AA000200020B9FFE7029800F0DEF8FFE7029887
:100AB0000168086840F00100086000F0F3FB019055
:100AC000FFE7029800684068C007A8B9FFE700F098
:100AD000E9FB0199401A0B280DD3FFE70299486AF8
:100AE00040F4003048620299052081F8200001207E
:100AF0008DF80F00B3E0E4E702980168086820F081
:100B00000200086000F0CEFB0190FFE70298006849
:100B100040688007002815D5FFE700F0C3FB019966
:100B2000401A0B280DD3FFE70299486A40F40030C1
:100B300048620299052081F8200001208DF80F00FD
:100B40008DE0E3E70298007E012807D1FFE70298D5
:100B50000168086840F08000086006E002980168BB
:100B6000086820F080000860FFE70298407E0128B6
:100B700007D1FFE702980168086840F0400008606C
:100B800006E002980168086820F040000860FFE76E
:100B90000298807E012807D1FFE702980168086863
:100BA00040F02000086006E002980168086820F024
:100BB00020000860FFE70298C07E012807D1FFE708
:100BC00002980168086820F01000086006E00298AA
:100BD0000168086840F010000860FFE70298007F95
:100BE000012807D1FFE702980168086840F0080073
:100BF000086006E002980168086820F008000860B4
:100C0000FFE70298407F012807D1FFE702980168BB
:100C1000086840F00400086006E00298016808686F
:100C200020F004000860FFE7029B19685A68986882
:100C3000D3F80CC040EA0C00D3F810C040EA0C0016
:100C40005B691843013A1043C86102990020486269
:100C5000029A012182F820108DF80F00FFE79DF81D
:100C60000F0004B080BD000080B58AB0099000205C
:100C7000089007900690059004900998006846F245
:100C80000041C4F2000188423DD1FFE7FFE70020A8
:100C9000039043F64000C4F20200016841F0007185
:100CA0000160006800F0007003900398FFE7FFE721
:100CB0000020029043F63000C4F20200016841F0C7
:100CC00008010160006800F0080002900298FFE748
:100CD00003200490022105910021009106910790C4
:100CE0000920089040F60040C4F2020004A900F078
:100CF000C9F8009A14200190114600F06BFB01988E
:100D000000F05EFBFFE70AB080BD000081B00090FC
:100D100001B0704781B0009001B0704781B0009081
:100D200001B0704781B0009001B0704781B0009071
:100D300001B0704780B584B00290029890F820000E
:100D400001282FD1FFE70299022081F820000298A4
:100D50000168086820F00100086000F0A3FA019023
:100D6000FFE7029800684068C007A8B1FFE700F0FD
:100D700099FA0199401A0B280DD3FFE70299486AA6
:100D800040F4003048620299052081F820000120DB
:100D90008DF80F000FE0E4E70299002048628DF81B
:100DA0000F0008E00299486A40F4002048620120E0
:100DB0008DF80F00FFE79DF80F0004B080BD000024
:100DC00081B0009001B0704781B0009001B07047D1
:100DD00081B0009001B0704781B0009001B07047C1
:100DE00081B0009001B0704781B0009001B07047B1
:100DF00081B0009001B0704781B0ADF80200BDF83D
:100E0000020004281FD1FFE740F22C00C2F20000CC
:100E10000078012807D1FFE740F22C01C2F200015F
:100E2000002008700EE040F22C00C2F200000078B2
:100E300038B9FFE740F22C01C2F20001012008702E
:100E4000FFE7FFE7FFE701B07047000080B582B021
:100E5000ADF8060043F61440C4F201000068BDF886
:100E6000061008420CD0FFE7BDF8060043F6144117
:100E7000C4F201010860BDF80600FFF7BDFFFFE7FF
:100E800002B080BD90B00F900E9100200C900B909E
:100E90000A900D90FFE70D980F2800F2E881FFE718
:100EA0000D99012088400C900E9800680C9908401C
:100EB0000B900B980C99884240F0D481FFE70E9874
:100EC000406800F00300012807D0FFE70E98406853
:100ED00000F0030002282FD1FFE70F9880680A90E6
:100EE0000D984100032000FA01F10A9888430A9006
:100EF0000E98C0680D99490000FA01F10A9808435C
:100F00000A900A980F9988600F9840680A900D9986
:100F1000012000FA01F10A9888430A900E9840686F
:100F2000C0F300100D9900FA01F10A9808430A90E5
:100F30000A980F994860FFE70E98406800F0030098
:100F4000032818D0FFE70F98C0680A900D98410059
:100F5000032000FA01F10A9888430A900E988068ED
:100F60000D99490000FA01F10A9808430A900A987D
:100F70000F99C860FFE70E98406800F00300022850
:100F800026D1FFE70F980D996FF0030202EA510195
:100F90000844006A0A900D9800F0070081000F20B5
:100FA00000FA01F10A9888430A900E9800690D9999
:100FB00001F00701890000FA01F10A9808430A903C
:100FC0000A980F990D9B02EA530211440862FFE749
:100FD0000F9800680A900D984100032000FA01F173
:100FE0000A9888430A900E98406800F003000D9913
:100FF000490000FA01F10A9808430A900A980F99EB
:1010000008600E9880798007002800F02A81FFE7A9
:10101000FFE70020099043F64400C4F20200016893
:1010200041F480410160006800F480400990099813
:10103000FFE70D9820F0030043F60801C4F2010118
:1010400040580A900D9800F0030081000F2000FA2C
:1010500001F10A9888430A900F980021C4F2020116
:10106000884203D1FFE7002008907AE00F9840F211
:101070000041C4F20201884203D1FFE7012007903A
:101080006CE00F9840F60001C4F20201884203D1DF
:10109000FFE7022006905EE00F9840F60041C4F2A0
:1010A0000201884203D1FFE70320059050E00F982A
:1010B00041F20001C4F20201884203D1FFE704209B
:1010C000049042E00F9841F20041C4F202018842CC
:1010D00003D1FFE70520039034E00F9841F60001AB
:1010E000C4F20201884203D1FFE70620029026E005
:1010F0000F9841F60041C4F20201884203D1FFE794
:101100000720019018E00F9842F20001C4F202019A
:10111000884203D1FFE7082000900AE00F9942F2CD
:101120000042C4F202020A20914208BF0920009046
:10113000FFE700980190FFE701980290FFE702980F
:101140000390FFE703980490FFE704980590FFE7FA
:1011500005980690FFE706980790FFE70798089024
:10116000FFE70898C0B20D9901F00301890000FA69
:1011700001F10A9808430A900A980D9921F0030199
:1011800043F60802C4F20102885043F60840C4F254
:10119000010000680A900B990A9888430A900E98FB
:1011A0008079C006002805D5FFE70B990A98084307
:1011B0000A90FFE70A9843F60841C4F2010108606B
:1011C00043F60C40C4F2010000680A900B990A989B
:1011D00088430A900E9880798006002805D5FFE79D
:1011E0000B990A9808430A90FFE70A9843F60C41C6
:1011F000C4F20101086043F60440C4F20100006833
:101200000A900B990A9888430A900E988079800773
:10121000002805D5FFE70B990A9808430A90FFE7D5
:101220000A9843F60441C4F20101086043F6004005
:10123000C4F2010000680A900B990A9888430A904A
:101240000E988079C00728B1FFE70B990A980843E8
:101250000A90FFE70A9843F60041C4F201010860D2
:10126000FFE7FFE7FFE70D9801300D9013E610B0A0
:101270007047000082B00190ADF802108DF8012097
:101280009DF8010028B1FFE7BDF8020001998861CF
:1012900005E0BDF80200000401998861FFE702B093
:1012A0007047000040F2CC10C2F2000000687047A6
:1012B00040F22D00C2F20000027840F2CC11C2F2DE
:1012C00000010868104408607047000080B543F6CC
:1012D0000041C4F20201086840F400700860086828
:1012E00040F480600860086840F480700860032063
:1012F00000F08AF80F2000F005F800F03BF800201D
:1013000080BD000080B582B0009040F20000C2F2C3
:101310000000006840F22D01C2F200010A784FF48B
:101320007A71B1FBF2F1B0FBF1F000F0DBFD20B11E
:10133000FFE701208DF8070018E000980F280DD86E
:10134000FFE700994FF0FF30002200F043F80098CB
:1013500040F23001C2F20001086003E001208DF884
:10136000070003E000208DF80700FFE79DF8070065
:1013700002B080BD82B0FFE70020019043F6440038
:10138000C4F20200016841F480410160006800F489
:10139000804001900198FFE7FFE70020009043F6AE
:1013A0004000C4F20200016841F080510160006811
:1013B00000F0805000900098FFE702B070470000F6
:1013C00080B582B08DF807009DF9070001F062FB3F
:1013D00002B080BD80B586B08DF8170004910392ED
:1013E0000020029001F06EFB02909DF91700019021
:1013F00002980499039A01F019F90146019801F045
:1014000069FB06B080BD000080B582B001900198F4
:1014100001F082FB02B080BD80B584B00020029054
:10142000FFE70020019043F64000C4F2020001688B
:1014300041F080510160006800F0805001900198F7
:10144000FFE74021C4F20E2101200860FFF72AFFC8
:101450000290FFE747F20400C4F20000006800F4C5
:101460008030B0F5803F0DD0FFE7FFF71BFF0299FA
:10147000401AB0F57A7F04D9FFE703208DF80F00FA
:1014800025E0E7E74421C4F20E2101200860FFF7C0
:1014900009FF0290FFE747F20400C4F20000006871
:1014A00000F40030B0F5003F0DD0FFE7FFF7FAFE83
:1014B0000299401AB0F57A7F04D9FFE703208DF82E
:1014C0000F0004E0E7E700208DF80F00FFE79DF82C
:1014D0000F0004B080BD000080B584B0029001917F
:1014E000029820B9FFE701208DF80F0021E1019853
:1014F00043F60041C4F20201096801F00F0188427D
:1015000012D9FFE7019943F60040C4F202000170CE
:10151000006800F00F000199884204D0FFE7012025
:101520008DF80F0005E1FFE702980078800700289A
:101530002AD5FFE7029800784007002809D5FFE781
:1015400043F60801C4F20201086840F4E050086064
:10155000FFE7029800780007002809D5FFE743F667
:101560000801C4F20201086840F460400860FFE727
:1015700043F60801C4F20201086820F0F000029A64
:10158000926810430860FFE702980078C0070028BF
:101590006ED0FFE702984068012811D1FFE743F6BB
:1015A0000000C4F20200006800F400310020B0EB3B
:1015B000514F04D1FFE701208DF80F00B9E02CE076
:1015C00002984068022805D0FFE702984068032887
:1015D00011D1FFE743F60000C4F20200006800F0FA
:1015E00000710020B0EB516F04D1FFE701208DF8AE
:1015F0000F009EE010E043F60000C4F20200006815
:1016000000F002010020B0EB510F04D1FFE70120F0
:101610008DF80F008DE0FFE7FFE743F60801C4F205
:101620000201086820F00300029A52681043086023
:10163000FFF738FE0090FFE743F60800C4F202000F
:10164000006800F00C0002994968B0EB810F0ED0E1
:10165000FFE7FFF727FE0099401A41F289318842DF
:1016600004D3FFE703208DF80F0062E0E4E7FFE713
:10167000019843F60041C4F20201096801F00F012C
:10168000884212D2FFE7019943F60040C4F20200FB
:101690000170006800F00F000199884204D0FFE754
:1016A00001208DF80F0044E0FFE702980078400722
:1016B00000280CD5FFE743F60801C4F202010868D0
:1016C00020F4E050029AD26810430860FFE70298C5
:1016D0000078000700280DD5FFE743F60801C4F2A3
:1016E0000201086820F46040029A126940EAC200D0
:1016F0000860FFE700F022F843F60801C4F2020197
:101700000968C9B20A0942F60A41C0F60001895CBB
:10171000C84040F20001C2F20001086040F230000F
:10172000C2F200000068FFF7EDFD00208DF80F0009
:10173000FFE79DF80F0004B080BD000080B586B0C3
:101740000020059004900390029043F60800C4F234
:101750000200006800F00C000146019140B1FFE773
:10176000019804280AD0FFE7019808280CD04FE020
:1017700042F20040C0F2F40002904FE041F6003027
:10178000C0F2B700029049E043F60400C4F2020040
:10179000016801F03F01059100684002002813D55F
:1017A000FFE743F60400C4F202000068C0F38810AB
:1017B00041F60031C0F2B701A0FB0101059A0023F8
:1017C000FEF766FD049012E043F60400C4F2020046
:1017D0000068C0F3881042F20041C0F2F401A0FB9F
:1017E0000101059A0023FEF753FD0490FFE743F63D
:1017F0000400C4F20200006800F44031022000EB53
:10180000D130039004980399B0FBF1F0029005E009
:1018100042F20040C0F2F4000290FFE7029806B0E6
:1018200080BD000080B586B00490049820B9FFE721
:1018300001208DF8170050E304980078C0070028B5
:1018400000F0A580FFE743F60800C4F2020000683C
:1018500000F00C00042813D0FFE743F60800C4F2A0
:101860000200006800F00C0008281ED1FFE743F6D4
:101870000400C4F2020000684002002815D5FFE70A
:1018800043F60000C4F20200006800F400310020BA
:10189000B0EB514F08D0FFE70498406820B9FFE74C
:1018A00001208DF8170018E370E0FFE70498406806
:1018B000B0F5803F09D1FFE743F60001C4F2020111
:1018C000086840F48030086020E004984068B0F573
:1018D000A02F0DD1FFE743F60001C4F20201086812
:1018E00040F480200860086840F4803008600CE014
:1018F00043F60001C4F20201086820F48030086059
:10190000086820F480200860FFE7FFE7FFE70498FD
:101910004068E8B1FFE7FFF7C5FC0390FFE743F637
:101920000000C4F20200006800F400310020B0EBB7
:10193000514F0CD1FFE7FFF7B5FC0399401A65281A
:1019400004D3FFE703208DF81700C6E2E7E71CE0A9
:10195000FFF7A8FC0390FFE743F60000C4F2020083
:10196000006800F400310020B0EB514F0CD0FFE7CD
:10197000FFF798FC0399401A652804D3FFE703207A
:101980008DF81700A9E2E7E7FFE7FFE7FFE7049814
:1019900000788007002840F19680FFE743F60800B2
:1019A000C4F20200006810F00C0F13D0FFE743F6FA
:1019B0000800C4F20200006800F00C0008282CD1D6
:1019C000FFE743F60400C4F202000068400200286A
:1019D00023D4FFE743F60000C4F20200006800F0E1
:1019E00002010020B0EB510F09D0FFE70498C06856
:1019F000012804D0FFE701208DF817006DE243F6BF
:101A00000001C4F20201086820F0F800049A12698B
:101A100040EAC2000860FFE754E00498C06870B371
:101A2000FFE70021C4F2472101200860FFF73AFCDC
:101A30000390FFE743F60000C4F20200006800F0E4
:101A400002010020B0EB510F0CD1FFE7FFF72AFC99
:101A50000399401A032804D3FFE703208DF81700E9
:101A60003BE2E7E743F60001C4F20201086820F018
:101A7000F800049A126940EAC200086021E00021DF
:101A8000C4F2472100200860FFF70CFC0390FFE739
:101A900043F60000C4F20200006800F002010020DA
:101AA000B0EB510F0CD0FFE7FFF7FCFB0399401A96
:101AB000032804D3FFE703208DF817000DE2E7E7C2
:101AC000FFE7FFE7FFE704980078000700284BD501
:101AD000FFE70498406918B3FFE740F68061C4F25D
:101AE000472101200860FFF7DDFB0390FFE743F685
:101AF0007400C4F20200006800F002010020B0EBA4
:101B0000510F0CD1FFE7FFF7CDFB0399401A0328D3
:101B100004D3FFE703208DF81700DEE1E7E722E0BA
:101B200040F68061C4F2472100200860FFF7BAFB4D
:101B30000390FFE743F67400C4F20200006800F06F
:101B400002010020B0EB510F0CD0FFE7FFF7AAFB1A
:101B50000399401A032804D3FFE703208DF81700E8
:101B6000BBE1E7E7FFE7FFE70498007840070028BC
:101B700040F1CE80FFE700208DF8070043F64000DB
:101B8000C4F202000068C000002815D4FFE7FFE798
:101B90000020009043F64000C4F20200016841F0CA
:101BA00080510160006800F0805000900098FFE7CD
:101BB00001208DF80700FFE747F20000C4F20000A3
:101BC0000068C005002822D4FFE747F20001C4F2F4
:101BD0000001086840F480700860FFF763FB039021
:101BE000FFE747F20000C4F200000068C0050028CB
:101BF0000CD4FFE7FFF756FB0399401A032804D3E0
:101C0000FFE703208DF8170067E1EAE7FFE7FFE74A
:101C100004988068012809D1FFE743F67001C4F2F7
:101C20000201086840F0010008601FE00498806825
:101C300005280DD1FFE743F67001C4F202010868E0
:101C400040F004000860086840F0010008600CE003
:101C500043F67001C4F20201086820F00100086038
:101C6000086820F004000860FFE7FFE7FFE704983A
:101C70008068F8B1FFE7FFF715FB0390FFE743F635
:101C80007000C4F20200006800F002010020B0EB16
:101C9000510F0ED1FFE7FFF705FB0399401A41F200
:101CA0008931884204D3FFE703208DF8170014E13F
:101CB000E5E71EE0FFF7F6FA0390FFE743F6700052
:101CC000C4F20200006800F002010020B0EB510FE6
:101CD0000ED0FFE7FFF7E6FA0399401A41F2893187
:101CE000884204D3FFE703208DF81700F5E0E5E70D
:101CF000FFE79DF80700012809D1FFE743F64001FF
:101D0000C4F20201086820F080500860FFE7FFE796
:101D100004988069002800F0DC80FFE743F60800A3
:101D2000C4F20200006800F00C00082800F0858072
:101D3000FFE70498806902285CD1FFE76021C4F2C4
:101D4000472100200860FFF7ADFA0390FFE743F654
:101D50000000C4F20200006800F000710020B0EB47
:101D6000516F0CD0FFE7FFF79DFA0399401A032843
:101D700004D3FFE703208DF81700AEE0E7E70499EE
:101D8000C869D1F820C04B6A8A6A40EA0C0040EA70
:101D90008310D2034FF6FF739A43A2F580321043AB
:101DA000C96A40EA016043F60401C4F20201086016
:101DB0006021C4F2472101200860FFF773FA039005
:101DC000FFE743F60000C4F20200006800F0007173
:101DD0000020B0EB516F0CD1FFE7FFF763FA0399D6
:101DE000401A032804D3FFE703208DF8170074E09E
:101DF000E7E721E06021C4F2472100200860FFF7F7
:101E000051FA0390FFE743F60000C4F202000068B5
:101E100000F000710020B0EB516F0CD0FFE7FFF72E
:101E200041FA0399401A032804D3FFE703208DF8F1
:101E3000170052E0E7E7FFE74AE0049880690128CD
:101E400004D1FFE701208DF8170046E043F60400B7
:101E5000C4F202000068029004988069012831D021
:101E6000FFE7029800F480000499C969884229D1EB
:101E7000FFE7029800F03F000499096A884221D1E7
:101E8000FFE7029847F6C07108400499496AB0EB31
:101E9000811F17D1FFE7029800F440300499896A46
:101EA000C9034FF6FF729143A1F58031884209D1F1
:101EB000FFE7029800F070600499C96AB0EB016F07
:101EC00004D0FFE701208DF8170006E0FFE7FFE7E9
:101ED000FFE700208DF81700FFE79DF8170006B018
:101EE00080BD000080B582B00190019800F0D8FB61
:101EF00002B080BD81B0009001B0704781B0009009
:101F000001B0704785B003900291FFE7039890F805
:101F10003C00012804D1FFE702208DF813007EE089
:101F20000399012081F83C00FFE7FFE703990220B5
:101F300081F83D00039800684068019003980068AC
:101F400080680090019820F070000190029801686C
:101F50000198084301900198039909684860039823
:101F600000680021C4F2010188423CD0FFE70398D9
:101F70000068B0F1804F36D0FFE70398006840F268
:101F80000041C4F2000188422DD0FFE703980068A9
:101F900040F60001C4F20001884224D0FFE7039814
:101FA000006840F60041C4F2000188421BD0FFE700
:101FB0000398006840F20041C4F20101884212D047
:101FC000FFE70398006844F20001C4F2010188426F
:101FD00009D0FFE70398006841F60001C4F2000150
:101FE00088420ED1FFE7009820F080000090029810
:101FF0004168009808430090009803990968886038
:10200000FFE70399012081F83D00FFE703990020D5
:1020100081F83C00FFE700208DF81300FFE79DF8F2
:10202000130005B07047000080B582B000900098A2
:1020300020B9FFE701208DF807003FE0009890F8F5
:102040003D0040B9FFE70099002081F83C0000986E
:1020500000F038F8FFE70099022081F83D00009970
:1020600051F8040B00F0C2FB0099012081F84600F2
:10207000FFE70099012081F83E00009981F83F00B8
:10208000009981F84000009981F84100FFE7FFE7DF
:102090000099012081F84200009981F843000099DD
:1020A00081F84400009981F84500FFE7009901207C
:1020B00081F83D0000208DF80700FFE79DF807003C
:1020C00002B080BD80B584B003900398006841F2EF
:1020D0000001C4F2000188421BD1FFE7FFE70020A6
:1020E000029043F64000C4F20200016841F0100182
:1020F0000160006800F0100002900298FFE73620AF
:10210000019000221146FFF765F90198FFF758F991
:10211000FFE704B080BD000083B00190019890F803
:102120003D00012804D0FFE701208DF80B006AE094
:102130000199022081F83D0001980168C86840F0CB
:102140000100C860019800680021C4F201018842C2
:102150003CD0FFE701980068B0F1804F36D0FFE730
:102160000198006840F20041C4F2000188422DD07D
:10217000FFE70198006840F60001C4F200018842C0
:1021800024D0FFE70198006840F60041C4F2000146
:1021900088421BD0FFE70198006840F20041C4F27A
:1021A0000101884212D0FFE70198006844F2000163
:1021B000C4F20101884209D0FFE70198006841F6A6
:1021C0000001C4F20001884212D1FFE701980068C3
:1021D000806800F0070000900098062807D0FFE70D
:1021E00001980168086840F001000860FFE706E018
:1021F00001980168086840F001000860FFE70020CE
:102200008DF80B00FFE79DF80B0003B0704700004E
:1022100081B0009001B0704780B584B003900398FE
:102220000068C068029003980068006901909DF8FA
:1022300004008007002824D5FFE79DF808008007E8
:1022400000281DD5FFE7039801686FF002000861C0
:10225000039901200877039800688069800720B1FE
:10226000FFE70398FFF7D4FF06E0039800F0E2F8D9
:10227000039800F0E3F8FFE7039900200877FFE7F1
:10228000FFE79DF804004007002825D5FFE79DF8EB
:102290000800400700281ED5FFE7039801686FF08B
:1022A0000400086103990220087703980068806998
:1022B00010F4407F04D0FFE70398FFF7A9FF06E082
:1022C000039800F0B7F8039800F0B8F8FFE7039917
:1022D00000200877FFE7FFE79DF8040000070028CB
:1022E00024D5FFE79DF80800000700281DD5FFE76B
:1022F000039801686FF008000861039904200877CB
:1023000003980068C069800720B1FFE70398FFF7D2
:102310007FFF06E0039800F08DF8039800F08EF838
:10232000FFE7039900200877FFE7FFE79DF8040027
:10233000C006002825D5FFE79DF80800C006002844
:102340001ED5FFE7039801686FF01000086103993C
:102350000820087703980068C06910F4407F04D013
:10236000FFE70398FFF754FF06E0039800F062F8D8
:10237000039800F063F8FFE7039900200877FFE770
:10238000FFE79DF80400C00778B1FFE79DF808005B
:10239000C00748B1FFE7039801686FF001000861CA
:1023A000039800F04FF8FFE7FFE79DF804000006F0
:1023B000002810D5FFE79DF808000006002809D581
:1023C000FFE7039801686FF0800008610398FFF74A
:1023D00091FDFFE7FFE79DF804004006002810D5B7
:1023E000FFE79DF808004006002809D5FFE703989D
:1023F00001686FF040000861039800F027F8FFE7DC
:10240000FFE79DF804008006002810D5FFE79DF83F
:1024100008008006002809D5FFE7039801686FF0DF
:10242000200008610398FFF769FDFFE7FFE704B0AC
:1024300080BD000081B0009001B0704781B0009075
:1024400001B0704781B0009001B0704781B000903A
:1024500001B07047FFE7FEE780B582B040F25C1044
:10246000C2F20000009046F20041C4F20001016097
:1024700003214160002101918160C1604FF410226D
:1024800002614FF440124261017641768176C17655
:1024900001774177FEF7F8FA18B1FFE7FDF7F8FF8B
:1024A000FFE702B080BD000080B590B000200F9023
:1024B0000E900D900C900B90FFE700200A9043F6D1
:1024C0003000C4F20200016841F0010101600068BF
:1024D00000F001000A900A98FFE7FFE7002009904A
:1024E00043F63000C4F20200016841F008010160C7
:1024F000006800F0080009900998FFE7FFE7002056
:10250000089043F63000C4F20200016841F08001F7
:102510000160006800F0800008900898FFE7FFE77E
:102520000020079043F63000C4F20200016841F039
:1025300002010160006800F0020007900798FFE7C1
:10254000FFE70020069043F63000C4F20200016865
:1025500041F010010160006800F01000069006983C
:10256000FFE741F20000C4F2020002904FF4006164
:10257000009101220192FEF77DFE04200B904FF4A2
:1025800088100C9002200D9040F20040C4F202002E
:102590000BA90391FEF776FC009B019A0298039920
:1025A0000B930C92002204920D920E92FEF76AFC9D
:1025B000049A082005901146FEF70CFF0598FEF7D7
:1025C000FFFE10B080BD000080B582B000210191F7
:1025D000009140F28410C2F2000041F20002C4F205
:1025E0000002026040F2E732426081606322C26012
:1025F0008161FFF719FD18B1FFE7FDF749FFFFE71C
:1026000000200090019040F28410C2F20000694660
:10261000FFF778FC18B1FFE7FDF73AFFFFE702B0DC
:1026200080BD0000FFE7FEE7FFE7FEE788B0079008
:1026300006910592079800F0070004900498C0F1F5
:102640000700052803D3FFE70420019004E0049865
:10265000C0F107000190FFE701980390049804304F
:10266000062803D8FFE70020009003E00498033811
:102670000090FFE70098029006980399012202FA61
:1026800001F101390840029B984005999A40013AAE
:102690001140084308B070477047000070470000C1
:1026A00080B582B0009000980138B0F1807F03D3EC
:1026B000FFE70120019019E0009801384EF2140163
:1026C000CEF2000108604FF0FF300F2100F002FA57
:1026D0004EF21801CEF20001002008604EF2100206
:1026E000CEF20002072111600190FFE7019802B0CD
:1026F00080BD000080B5FEF7DBFD80BD80B594B0E5
:1027000008A83021FDF73CFE0020079006900590B8
:1027100004900390FFE70020029043F64000C4F2CB
:102720000200016841F080510160006800F08050B3
:1027300002900298FFE7FFE70020019047F20000B7
:10274000C4F20000016841F440410160006800F4F7
:10275000404001900198FFE7012008904FF480303D
:10276000099002200E904FF480010F9106211091E4
:10277000B421119112900420139008A8FFF752F889
:1027800018B1FFE7FDF784FEFFE7FEF745FE18B13D
:10279000FFE7FDF77DFEFFE70F2003900220049086
:1027A000002005904FF4A05006904FF48050079001
:1027B00003A80521FEF790FE18B1FFE7FDF768FEBC
:1027C000FFE714B080BD00004EF68851CEF2000144
:1027D000086840F4700008607047000080B540F25F
:1027E0008410C2F20000FFF717FD80BD83B0029095
:1027F000019102980068009002980021C4F2010142
:10280000884225D0FFE70298B0F1804F20D0FFE743
:10281000029840F20041C4F20001884218D0FFE75C
:10282000029840F60001C4F20001884210D0FFE790
:10283000029840F60041C4F20001884208D0FFE748
:10284000029840F20041C4F2010188420AD1FFE738
:10285000009820F0700000900198416800980843AB
:102860000090FFE702980021C4F20101884255D090
:10287000FFE70298B0F1804F50D0FFE7029840F296
:102880000041C4F20001884248D0FFE7029840F6B8
:102890000001C4F20001884240D0FFE7029840F6F0
:1028A0000041C4F20001884238D0FFE7029840F2AC
:1028B0000041C4F20101884230D0FFE7029844F29F
:1028C0000001C4F20101884228D0FFE7029844F2D7
:1028D0000041C4F20101884220D0FFE7029844F68B
:1028E0000001C4F20101884218D0FFE7029841F6C6
:1028F0000001C4F20001884210D0FFE7029841F6BF
:102900000041C4F20001884208D0FFE7029842F279
:102910000001C4F2000188420AD1FFE7009820F4C8
:10292000407000900198C168009808430090FFE74C
:10293000009820F0800001994969084300900198AF
:1029400080680299C86201980068029988620298BA
:102950000021C4F20101884208D0FFE7029840F24A
:102960000041C4F20101884205D1FFE701980069E6
:1029700002990863FFE70299086840F004000860C4
:1029800002990120486100980299086003B07047DD
:10299000FFE7FEE780B500F0DDF880BD80B590B0C0
:1029A0000F908DED0E0ACDED0D0A8DED0C1ACDEDCB
:1029B0000B1A8DED0A2ACDED092A8DED083ACDEDE1
:1029C000073A8DED064ACDED054A8DED045ACDED61
:1029D000035A8DED026A0F9800900E990160002154
:1029E000019141608160C160016141618161C161AA
:1029F000016224309DED0D0ADDED0C0A9DED0B1AF0
:102A0000DDED0A1A9DED092ADDED082A00F024F813
:102A1000009864309DED070ADDED060A9DED051A6C
:102A2000DDED041A9DED032ADDED022A00F014F815
:102A300000980199C0F8A410C0F8A810C0F8AC1014
:102A4000C0F8B010C0F8B410C0F8B810C0F8BC108E
:102A500080F8C01010B080BD87B006908DED050ADB
:102A6000CDED040A8DED031ACDED021A8DED012A8C
:102A7000CDED002A069805990160049941600399FB
:102A800081600099C160029901610199416107B0BB
:102A90007047000081B08DF803009DF90300002805
:102AA0000ED4FFE79DF9031001F01F0201209040B2
:102AB0004A094EF20011CEF2000141F82200FFE770
:102AC00001B070474EF60C50CEF200000068C0F323
:102AD0000220704782B08DF8070000919DF9070031
:102AE00000280AD4FFE7009800019DF907104EF274
:102AF0000042CEF2000288540BE0009800019DF8DD
:102B0000071001F00F014EF61452CEF20002885465
:102B1000FFE702B07047000083B00290029800F017
:102B2000070000904EF60C51CEF2000108680190AB
:102B300001984FF6FF02104001900198009A40EA78
:102B400002200022C0F2FA5210430190019808605E
:102B500003B0704780B540F29800C2F200009FEDCC
:102B60000E0A9FED0E6AF0EE460AB0EE461AF0EE3F
:102B7000461AB0EE462AF0EE462AB0EE463AF0EE9D
:102B8000463AB0EE464AF0EE464AB0EE465AF0EE0D
:102B9000465AFFF703FF80BD9A9999410000000053
:102BA00080B582B000200190FEF790FBFFF7A6FDF4
:102BB000FFF77AFCFFF750FCFFF706FD40F25C10D0
:102BC000C2F20000009040F20401C2F20001FDF7E1
:102BD0008DFC0098FEF7AEF800980221FDF75CFC32
:102BE00040F28410C2F20000FFF796FAFFE7FEE71A
:102BF000F1EE100A4FF6FF71C0F2C03120EA010079
:102C000040F04070E1EE100A704700000000000044
:102C1000000001020304060708090000402C000818
:102C20000000002038000000E8010008782C0008AF
:102C300038000020980700000402000859FDFFFF3B
:102C40000024F4000000000000000000000000006C
:102C50000000000000000000000000000000000074
:102C60000100000001000000000000000101000060
:082C700010000000000000004C
:04000005080001AD41
:00000001FF
